{
  "contractName": "Land1",
  "abi": [
    {
      "inputs": [
        {
          "internalType": "string",
          "name": "_name",
          "type": "string"
        },
        {
          "internalType": "string",
          "name": "_symbol",
          "type": "string"
        },
        {
          "internalType": "uint256",
          "name": "_cost",
          "type": "uint256"
        },
        {
          "internalType": "uint256",
          "name": "_price",
          "type": "uint256"
        }
      ],
      "stateMutability": "nonpayable",
      "type": "constructor"
    },
    {
      "anonymous": false,
      "inputs": [
        {
          "indexed": true,
          "internalType": "address",
          "name": "owner",
          "type": "address"
        },
        {
          "indexed": true,
          "internalType": "address",
          "name": "approved",
          "type": "address"
        },
        {
          "indexed": true,
          "internalType": "uint256",
          "name": "tokenId",
          "type": "uint256"
        }
      ],
      "name": "Approval",
      "type": "event"
    },
    {
      "anonymous": false,
      "inputs": [
        {
          "indexed": true,
          "internalType": "address",
          "name": "owner",
          "type": "address"
        },
        {
          "indexed": true,
          "internalType": "address",
          "name": "operator",
          "type": "address"
        },
        {
          "indexed": false,
          "internalType": "bool",
          "name": "approved",
          "type": "bool"
        }
      ],
      "name": "ApprovalForAll",
      "type": "event"
    },
    {
      "anonymous": false,
      "inputs": [
        {
          "indexed": false,
          "internalType": "address",
          "name": "_owner",
          "type": "address"
        },
        {
          "indexed": false,
          "internalType": "address",
          "name": "_buyer",
          "type": "address"
        },
        {
          "indexed": false,
          "internalType": "uint256",
          "name": "_price",
          "type": "uint256"
        }
      ],
      "name": "PropertyNftBought",
      "type": "event"
    },
    {
      "anonymous": false,
      "inputs": [
        {
          "indexed": true,
          "internalType": "address",
          "name": "from",
          "type": "address"
        },
        {
          "indexed": true,
          "internalType": "address",
          "name": "to",
          "type": "address"
        },
        {
          "indexed": true,
          "internalType": "uint256",
          "name": "tokenId",
          "type": "uint256"
        }
      ],
      "name": "Transfer",
      "type": "event"
    },
    {
      "inputs": [
        {
          "internalType": "address",
          "name": "to",
          "type": "address"
        },
        {
          "internalType": "uint256",
          "name": "tokenId",
          "type": "uint256"
        }
      ],
      "name": "approve",
      "outputs": [],
      "stateMutability": "nonpayable",
      "type": "function"
    },
    {
      "inputs": [
        {
          "internalType": "address",
          "name": "owner",
          "type": "address"
        }
      ],
      "name": "balanceOf",
      "outputs": [
        {
          "internalType": "uint256",
          "name": "",
          "type": "uint256"
        }
      ],
      "stateMutability": "view",
      "type": "function"
    },
    {
      "inputs": [],
      "name": "cost",
      "outputs": [
        {
          "internalType": "uint256",
          "name": "",
          "type": "uint256"
        }
      ],
      "stateMutability": "view",
      "type": "function"
    },
    {
      "inputs": [
        {
          "internalType": "uint256",
          "name": "tokenId",
          "type": "uint256"
        }
      ],
      "name": "getApproved",
      "outputs": [
        {
          "internalType": "address",
          "name": "",
          "type": "address"
        }
      ],
      "stateMutability": "view",
      "type": "function"
    },
    {
      "inputs": [
        {
          "internalType": "address",
          "name": "owner",
          "type": "address"
        },
        {
          "internalType": "address",
          "name": "operator",
          "type": "address"
        }
      ],
      "name": "isApprovedForAll",
      "outputs": [
        {
          "internalType": "bool",
          "name": "",
          "type": "bool"
        }
      ],
      "stateMutability": "view",
      "type": "function"
    },
    {
      "inputs": [],
      "name": "maxSupply",
      "outputs": [
        {
          "internalType": "uint256",
          "name": "",
          "type": "uint256"
        }
      ],
      "stateMutability": "view",
      "type": "function"
    },
    {
      "inputs": [],
      "name": "name",
      "outputs": [
        {
          "internalType": "string",
          "name": "",
          "type": "string"
        }
      ],
      "stateMutability": "view",
      "type": "function"
    },
    {
      "inputs": [],
      "name": "owner",
      "outputs": [
        {
          "internalType": "address payable",
          "name": "",
          "type": "address"
        }
      ],
      "stateMutability": "view",
      "type": "function"
    },
    {
      "inputs": [
        {
          "internalType": "uint256",
          "name": "tokenId",
          "type": "uint256"
        }
      ],
      "name": "ownerOf",
      "outputs": [
        {
          "internalType": "address",
          "name": "",
          "type": "address"
        }
      ],
      "stateMutability": "view",
      "type": "function"
    },
    {
      "inputs": [
        {
          "internalType": "uint256",
          "name": "",
          "type": "uint256"
        }
      ],
      "name": "plots",
      "outputs": [
        {
          "internalType": "string",
          "name": "name",
          "type": "string"
        },
        {
          "internalType": "address",
          "name": "owner",
          "type": "address"
        },
        {
          "internalType": "int256",
          "name": "posX",
          "type": "int256"
        },
        {
          "internalType": "int256",
          "name": "posY",
          "type": "int256"
        },
        {
          "internalType": "int256",
          "name": "posZ",
          "type": "int256"
        },
        {
          "internalType": "uint256",
          "name": "sizeX",
          "type": "uint256"
        },
        {
          "internalType": "uint256",
          "name": "sizeY",
          "type": "uint256"
        },
        {
          "internalType": "uint256",
          "name": "sizeZ",
          "type": "uint256"
        }
      ],
      "stateMutability": "view",
      "type": "function"
    },
    {
      "inputs": [],
      "name": "price",
      "outputs": [
        {
          "internalType": "uint256",
          "name": "",
          "type": "uint256"
        }
      ],
      "stateMutability": "view",
      "type": "function"
    },
    {
      "inputs": [
        {
          "internalType": "address",
          "name": "from",
          "type": "address"
        },
        {
          "internalType": "address",
          "name": "to",
          "type": "address"
        },
        {
          "internalType": "uint256",
          "name": "tokenId",
          "type": "uint256"
        }
      ],
      "name": "safeTransferFrom",
      "outputs": [],
      "stateMutability": "nonpayable",
      "type": "function"
    },
    {
      "inputs": [
        {
          "internalType": "address",
          "name": "from",
          "type": "address"
        },
        {
          "internalType": "address",
          "name": "to",
          "type": "address"
        },
        {
          "internalType": "uint256",
          "name": "tokenId",
          "type": "uint256"
        },
        {
          "internalType": "bytes",
          "name": "_data",
          "type": "bytes"
        }
      ],
      "name": "safeTransferFrom",
      "outputs": [],
      "stateMutability": "nonpayable",
      "type": "function"
    },
    {
      "inputs": [
        {
          "internalType": "address",
          "name": "operator",
          "type": "address"
        },
        {
          "internalType": "bool",
          "name": "approved",
          "type": "bool"
        }
      ],
      "name": "setApprovalForAll",
      "outputs": [],
      "stateMutability": "nonpayable",
      "type": "function"
    },
    {
      "inputs": [
        {
          "internalType": "bytes4",
          "name": "interfaceId",
          "type": "bytes4"
        }
      ],
      "name": "supportsInterface",
      "outputs": [
        {
          "internalType": "bool",
          "name": "",
          "type": "bool"
        }
      ],
      "stateMutability": "view",
      "type": "function"
    },
    {
      "inputs": [],
      "name": "symbol",
      "outputs": [
        {
          "internalType": "string",
          "name": "",
          "type": "string"
        }
      ],
      "stateMutability": "view",
      "type": "function"
    },
    {
      "inputs": [
        {
          "internalType": "uint256",
          "name": "tokenId",
          "type": "uint256"
        }
      ],
      "name": "tokenURI",
      "outputs": [
        {
          "internalType": "string",
          "name": "",
          "type": "string"
        }
      ],
      "stateMutability": "view",
      "type": "function"
    },
    {
      "inputs": [],
      "name": "totalSupply",
      "outputs": [
        {
          "internalType": "uint256",
          "name": "",
          "type": "uint256"
        }
      ],
      "stateMutability": "view",
      "type": "function"
    },
    {
      "inputs": [
        {
          "internalType": "address",
          "name": "from",
          "type": "address"
        },
        {
          "internalType": "address",
          "name": "to",
          "type": "address"
        },
        {
          "internalType": "uint256",
          "name": "tokenId",
          "type": "uint256"
        }
      ],
      "name": "transferFrom",
      "outputs": [],
      "stateMutability": "nonpayable",
      "type": "function"
    },
    {
      "inputs": [
        {
          "internalType": "uint256",
          "name": "_id",
          "type": "uint256"
        }
      ],
      "name": "mint",
      "outputs": [],
      "stateMutability": "payable",
      "type": "function"
    },
    {
      "inputs": [],
      "name": "getBuildings",
      "outputs": [
        {
          "components": [
            {
              "internalType": "string",
              "name": "name",
              "type": "string"
            },
            {
              "internalType": "address",
              "name": "owner",
              "type": "address"
            },
            {
              "internalType": "int256",
              "name": "posX",
              "type": "int256"
            },
            {
              "internalType": "int256",
              "name": "posY",
              "type": "int256"
            },
            {
              "internalType": "int256",
              "name": "posZ",
              "type": "int256"
            },
            {
              "internalType": "uint256",
              "name": "sizeX",
              "type": "uint256"
            },
            {
              "internalType": "uint256",
              "name": "sizeY",
              "type": "uint256"
            },
            {
              "internalType": "uint256",
              "name": "sizeZ",
              "type": "uint256"
            }
          ],
          "internalType": "struct Land1.Plot[]",
          "name": "",
          "type": "tuple[]"
        }
      ],
      "stateMutability": "view",
      "type": "function"
    },
    {
      "inputs": [
        {
          "internalType": "uint256",
          "name": "_id",
          "type": "uint256"
        }
      ],
      "name": "getBuilding",
      "outputs": [
        {
          "components": [
            {
              "internalType": "string",
              "name": "name",
              "type": "string"
            },
            {
              "internalType": "address",
              "name": "owner",
              "type": "address"
            },
            {
              "internalType": "int256",
              "name": "posX",
              "type": "int256"
            },
            {
              "internalType": "int256",
              "name": "posY",
              "type": "int256"
            },
            {
              "internalType": "int256",
              "name": "posZ",
              "type": "int256"
            },
            {
              "internalType": "uint256",
              "name": "sizeX",
              "type": "uint256"
            },
            {
              "internalType": "uint256",
              "name": "sizeY",
              "type": "uint256"
            },
            {
              "internalType": "uint256",
              "name": "sizeZ",
              "type": "uint256"
            }
          ],
          "internalType": "struct Land1.Plot",
          "name": "",
          "type": "tuple"
        }
      ],
      "stateMutability": "view",
      "type": "function"
    },
    {
      "inputs": [
        {
          "internalType": "uint256",
          "name": "_id",
          "type": "uint256"
        },
        {
          "internalType": "uint256",
          "name": "_price",
          "type": "uint256"
        }
      ],
      "name": "allowBuy",
      "outputs": [],
      "stateMutability": "nonpayable",
      "type": "function"
    },
    {
      "inputs": [
        {
          "internalType": "uint256",
          "name": "_id",
          "type": "uint256"
        }
      ],
      "name": "disallowBuy",
      "outputs": [],
      "stateMutability": "nonpayable",
      "type": "function"
    },
    {
      "inputs": [
        {
          "internalType": "uint256",
          "name": "_id",
          "type": "uint256"
        }
      ],
      "name": "buy",
      "outputs": [],
      "stateMutability": "payable",
      "type": "function"
    },
    {
      "inputs": [],
      "name": "receiveFromBuyer",
      "outputs": [],
      "stateMutability": "payable",
      "type": "function"
    },
    {
      "inputs": [],
      "name": "withdraw",
      "outputs": [],
      "stateMutability": "nonpayable",
      "type": "function"
    },
    {
      "inputs": [],
      "name": "getBalance",
      "outputs": [
        {
          "internalType": "uint256",
          "name": "",
          "type": "uint256"
        }
      ],
      "stateMutability": "view",
      "type": "function"
    }
  ],
  "bytecode": "0x6080604052670de0b6b3a764000060065560056007556000600855671bc16d674ec800006009556000600a553480156200003857600080fd5b50604051620047fb380380620047fb83398181016040528101906200005e919062000a39565b8383816000908051906020019062000078929190620007b1565b50806001908051906020019062000091929190620007b1565b5050508160068190555080600981905550600c6040518061010001604052806040518060400160405280600681526020017f506c6f74203100000000000000000000000000000000000000000000000000008152508152602001600073ffffffffffffffffffffffffffffffffffffffff168152602001600081526020016000815260200160008152602001600a8152602001600a8152602001600a8152509080600181540180825580915050600190039060005260206000209060080201600090919091909150600082015181600001908051906020019062000177929190620007b1565b5060208201518160010160006101000a81548173ffffffffffffffffffffffffffffffffffffffff021916908373ffffffffffffffffffffffffffffffffffffffff16021790555060408201518160020155606082015181600301556080820151816004015560a0820151816005015560c0820151816006015560e082015181600701555050600c6040518061010001604052806040518060400160405280600681526020017f506c6f74203200000000000000000000000000000000000000000000000000008152508152602001600073ffffffffffffffffffffffffffffffffffffffff16815260200160008152602001600a815260200160008152602001600a815260200160058152602001600381525090806001815401808255809150506001900390600052602060002090600802016000909190919091506000820151816000019080519060200190620002d2929190620007b1565b5060208201518160010160006101000a81548173ffffffffffffffffffffffffffffffffffffffff021916908373ffffffffffffffffffffffffffffffffffffffff16021790555060408201518160020155606082015181600301556080820151816004015560a0820151816005015560c0820151816006015560e082015181600701555050600c6040518061010001604052806040518060400160405280600681526020017f506c6f74203300000000000000000000000000000000000000000000000000008152508152602001600073ffffffffffffffffffffffffffffffffffffffff168152602001600081526020017ffffffffffffffffffffffffffffffffffffffffffffffffffffffffffffffff6815260200160008152602001600a8152602001600581526020016003815250908060018154018082558091505060019003906000526020600020906008020160009091909190915060008201518160000190805190602001906200044c929190620007b1565b5060208201518160010160006101000a81548173ffffffffffffffffffffffffffffffffffffffff021916908373ffffffffffffffffffffffffffffffffffffffff16021790555060408201518160020155606082015181600301556080820151816004015560a0820151816005015560c0820151816006015560e082015181600701555050600c6040518061010001604052806040518060400160405280600681526020017f506c6f74203400000000000000000000000000000000000000000000000000008152508152602001600073ffffffffffffffffffffffffffffffffffffffff168152602001600a815260200160008152602001600081526020016005815260200160198152602001600581525090806001815401808255809150506001900390600052602060002090600802016000909190919091506000820151816000019080519060200190620005a7929190620007b1565b5060208201518160010160006101000a81548173ffffffffffffffffffffffffffffffffffffffff021916908373ffffffffffffffffffffffffffffffffffffffff16021790555060408201518160020155606082015181600301556080820151816004015560a0820151816005015560c0820151816006015560e082015181600701555050600c6040518061010001604052806040518060400160405280600681526020017f506c6f74203500000000000000000000000000000000000000000000000000008152508152602001600073ffffffffffffffffffffffffffffffffffffffff1681526020017ffffffffffffffffffffffffffffffffffffffffffffffffffffffffffffffff681526020016000815260200160008152602001600581526020016019815260200160058152509080600181540180825580915050600190039060005260206000209060080201600090919091909150600082015181600001908051906020019062000721929190620007b1565b5060208201518160010160006101000a81548173ffffffffffffffffffffffffffffffffffffffff021916908373ffffffffffffffffffffffffffffffffffffffff16021790555060408201518160020155606082015181600301556080820151816004015560a0820151816005015560c0820151816006015560e0820151816007015550505050505062000b4e565b828054620007bf9062000b18565b90600052602060002090601f016020900481019282620007e357600085556200082f565b82601f10620007fe57805160ff19168380011785556200082f565b828001600101855582156200082f579182015b828111156200082e57825182559160200191906001019062000811565b5b5090506200083e919062000842565b5090565b5b808211156200085d57600081600090555060010162000843565b5090565b6000604051905090565b600080fd5b600080fd5b600080fd5b600080fd5b6000601f19601f8301169050919050565b7f4e487b7100000000000000000000000000000000000000000000000000000000600052604160045260246000fd5b620008ca826200087f565b810181811067ffffffffffffffff82111715620008ec57620008eb62000890565b5b80604052505050565b60006200090162000861565b90506200090f8282620008bf565b919050565b600067ffffffffffffffff82111562000932576200093162000890565b5b6200093d826200087f565b9050602081019050919050565b60005b838110156200096a5780820151818401526020810190506200094d565b838111156200097a576000848401525b50505050565b600062000997620009918462000914565b620008f5565b905082815260208101848484011115620009b657620009b56200087a565b5b620009c38482856200094a565b509392505050565b600082601f830112620009e357620009e262000875565b5b8151620009f584826020860162000980565b91505092915050565b6000819050919050565b62000a1381620009fe565b811462000a1f57600080fd5b50565b60008151905062000a338162000a08565b92915050565b6000806000806080858703121562000a565762000a556200086b565b5b600085015167ffffffffffffffff81111562000a775762000a7662000870565b5b62000a8587828801620009cb565b945050602085015167ffffffffffffffff81111562000aa95762000aa862000870565b5b62000ab787828801620009cb565b935050604062000aca8782880162000a22565b925050606062000add8782880162000a22565b91505092959194509250565b7f4e487b7100000000000000000000000000000000000000000000000000000000600052602260045260246000fd5b6000600282049050600182168062000b3157607f821691505b6020821081141562000b485762000b4762000ae9565b5b50919050565b613c9d8062000b5e6000396000f3fe6080604052600436106101b75760003560e01c806395d89b41116100ec578063bbb5e8d31161008a578063d5abeb0111610064578063d5abeb01146105f7578063d96a094a14610622578063d9cf6a261461063e578063e985e9c514610669576101b7565b8063bbb5e8d314610568578063c87b56dd14610591578063d4991312146105ce576101b7565b8063a035b1fe116100c6578063a035b1fe146104cf578063a0712d68146104fa578063a22cb46514610516578063b88d4fde1461053f576101b7565b806395d89b411461045d5780639dfd8b02146104885780639fc6cd4a146104c5576101b7565b806323b872dd1161015957806361bf49ee1161013357806361bf49ee146103745780636352211e146103b857806370a08231146103f55780638da5cb5b14610432576101b7565b806323b872dd1461030b5780633ccfd60b1461033457806342842e0e1461034b576101b7565b8063095ea7b311610195578063095ea7b31461026157806312065fe01461028a57806313faede6146102b557806318160ddd146102e0576101b7565b806301ffc9a7146101bc57806306fdde03146101f9578063081812fc14610224575b600080fd5b3480156101c857600080fd5b506101e360048036038101906101de919061250b565b6106a6565b6040516101f09190612553565b60405180910390f35b34801561020557600080fd5b5061020e610788565b60405161021b9190612607565b60405180910390f35b34801561023057600080fd5b5061024b6004803603810190610246919061265f565b61081a565b60405161025891906126cd565b60405180910390f35b34801561026d57600080fd5b5061028860048036038101906102839190612714565b61089f565b005b34801561029657600080fd5b5061029f6109b7565b6040516102ac9190612763565b60405180910390f35b3480156102c157600080fd5b506102ca6109c1565b6040516102d79190612763565b60405180910390f35b3480156102ec57600080fd5b506102f56109c7565b6040516103029190612763565b60405180910390f35b34801561031757600080fd5b50610332600480360381019061032d919061277e565b6109cd565b005b34801561034057600080fd5b50610349610a2d565b005b34801561035757600080fd5b50610372600480360381019061036d919061277e565b610b79565b005b34801561038057600080fd5b5061039b6004803603810190610396919061265f565b610b99565b6040516103af9897969594939291906127ea565b60405180910390f35b3480156103c457600080fd5b506103df60048036038101906103da919061265f565b610c99565b6040516103ec91906126cd565b60405180910390f35b34801561040157600080fd5b5061041c6004803603810190610417919061286f565b610d4b565b6040516104299190612763565b60405180910390f35b34801561043e57600080fd5b50610447610e03565b60405161045491906128bd565b60405180910390f35b34801561046957600080fd5b50610472610e29565b60405161047f9190612607565b60405180910390f35b34801561049457600080fd5b506104af60048036038101906104aa919061265f565b610ebb565b6040516104bc91906129ff565b60405180910390f35b6104cd611028565b005b3480156104db57600080fd5b506104e4611043565b6040516104f19190612763565b60405180910390f35b610514600480360381019061050f919061265f565b611049565b005b34801561052257600080fd5b5061053d60048036038101906105389190612a4d565b61118b565b005b34801561054b57600080fd5b5061056660048036038101906105619190612bc2565b6111a1565b005b34801561057457600080fd5b5061058f600480360381019061058a9190612c45565b611203565b005b34801561059d57600080fd5b506105b860048036038101906105b3919061265f565b6112c8565b6040516105c59190612607565b60405180910390f35b3480156105da57600080fd5b506105f560048036038101906105f0919061265f565b61136f565b005b34801561060357600080fd5b5061060c6113f0565b6040516106199190612763565b60405180910390f35b61063c6004803603810190610637919061265f565b6113f6565b005b34801561064a57600080fd5b506106536115f8565b6040516106609190612df7565b60405180910390f35b34801561067557600080fd5b50610690600480360381019061068b9190612e19565b61177c565b60405161069d9190612553565b60405180910390f35b60007f80ac58cd000000000000000000000000000000000000000000000000000000007bffffffffffffffffffffffffffffffffffffffffffffffffffffffff1916827bffffffffffffffffffffffffffffffffffffffffffffffffffffffff1916148061077157507f5b5e139f000000000000000000000000000000000000000000000000000000007bffffffffffffffffffffffffffffffffffffffffffffffffffffffff1916827bffffffffffffffffffffffffffffffffffffffffffffffffffffffff1916145b80610781575061078082611810565b5b9050919050565b60606000805461079790612e88565b80601f01602080910402602001604051908101604052809291908181526020018280546107c390612e88565b80156108105780601f106107e557610100808354040283529160200191610810565b820191906000526020600020905b8154815290600101906020018083116107f357829003601f168201915b5050505050905090565b60006108258261187a565b610864576040517f08c379a000000000000000000000000000000000000000000000000000000000815260040161085b90612f2c565b60405180910390fd5b6004600083815260200190815260200160002060009054906101000a900473ffffffffffffffffffffffffffffffffffffffff169050919050565b60006108aa82610c99565b90508073ffffffffffffffffffffffffffffffffffffffff168373ffffffffffffffffffffffffffffffffffffffff16141561091b576040517f08c379a000000000000000000000000000000000000000000000000000000000815260040161091290612fbe565b60405180910390fd5b8073ffffffffffffffffffffffffffffffffffffffff1661093a6118e6565b73ffffffffffffffffffffffffffffffffffffffff1614806109695750610968816109636118e6565b61177c565b5b6109a8576040517f08c379a000000000000000000000000000000000000000000000000000000000815260040161099f90613050565b60405180910390fd5b6109b283836118ee565b505050565b6000600a54905090565b60065481565b60085481565b6109de6109d86118e6565b826119a7565b610a1d576040517f08c379a0000000000000000000000000000000000000000000000000000000008152600401610a14906130e2565b60405180910390fd5b610a28838383611a85565b505050565b600b60009054906101000a900473ffffffffffffffffffffffffffffffffffffffff1673ffffffffffffffffffffffffffffffffffffffff163373ffffffffffffffffffffffffffffffffffffffff1614610abd576040517f08c379a0000000000000000000000000000000000000000000000000000000008152600401610ab49061314e565b60405180910390fd5b600047905060008111610b05576040517f08c379a0000000000000000000000000000000000000000000000000000000008152600401610afc906131ba565b60405180910390fd5b600b60009054906101000a900473ffffffffffffffffffffffffffffffffffffffff1673ffffffffffffffffffffffffffffffffffffffff166108fc829081150290604051600060405180830381858888f19350505050158015610b6d573d6000803e3d6000fd5b506000600a8190555050565b610b94838383604051806020016040528060008152506111a1565b505050565b600c8181548110610ba957600080fd5b9060005260206000209060080201600091509050806000018054610bcc90612e88565b80601f0160208091040260200160405190810160405280929190818152602001828054610bf890612e88565b8015610c455780601f10610c1a57610100808354040283529160200191610c45565b820191906000526020600020905b815481529060010190602001808311610c2857829003601f168201915b5050505050908060010160009054906101000a900473ffffffffffffffffffffffffffffffffffffffff16908060020154908060030154908060040154908060050154908060060154908060070154905088565b6000806002600084815260200190815260200160002060009054906101000a900473ffffffffffffffffffffffffffffffffffffffff169050600073ffffffffffffffffffffffffffffffffffffffff168173ffffffffffffffffffffffffffffffffffffffff161415610d42576040517f08c379a0000000000000000000000000000000000000000000000000000000008152600401610d399061324c565b60405180910390fd5b80915050919050565b60008073ffffffffffffffffffffffffffffffffffffffff168273ffffffffffffffffffffffffffffffffffffffff161415610dbc576040517f08c379a0000000000000000000000000000000000000000000000000000000008152600401610db3906132de565b60405180910390fd5b600360008373ffffffffffffffffffffffffffffffffffffffff1673ffffffffffffffffffffffffffffffffffffffff168152602001908152602001600020549050919050565b600b60009054906101000a900473ffffffffffffffffffffffffffffffffffffffff1681565b606060018054610e3890612e88565b80601f0160208091040260200160405190810160405280929190818152602001828054610e6490612e88565b8015610eb15780601f10610e8657610100808354040283529160200191610eb1565b820191906000526020600020905b815481529060010190602001808311610e9457829003601f168201915b5050505050905090565b610ec3612444565b600c600183610ed2919061332d565b81548110610ee357610ee2613361565b5b906000526020600020906008020160405180610100016040529081600082018054610f0d90612e88565b80601f0160208091040260200160405190810160405280929190818152602001828054610f3990612e88565b8015610f865780601f10610f5b57610100808354040283529160200191610f86565b820191906000526020600020905b815481529060010190602001808311610f6957829003601f168201915b505050505081526020016001820160009054906101000a900473ffffffffffffffffffffffffffffffffffffffff1673ffffffffffffffffffffffffffffffffffffffff1673ffffffffffffffffffffffffffffffffffffffff16815260200160028201548152602001600382015481526020016004820154815260200160058201548152602001600682015481526020016007820154815250509050919050565b34600a600082825461103a9190613390565b92505081905550565b60095481565b6000600854905060075481111561105f57600080fd5b600073ffffffffffffffffffffffffffffffffffffffff16600c600184611086919061332d565b8154811061109757611096613361565b5b906000526020600020906008020160010160009054906101000a900473ffffffffffffffffffffffffffffffffffffffff1673ffffffffffffffffffffffffffffffffffffffff16146110e957600080fd5b6006543410156110f857600080fd5b33600c600184611108919061332d565b8154811061111957611118613361565b5b906000526020600020906008020160010160006101000a81548173ffffffffffffffffffffffffffffffffffffffff021916908373ffffffffffffffffffffffffffffffffffffffff16021790555060016008546111779190613390565b6008819055506111873383611cec565b5050565b61119d6111966118e6565b8383611d0a565b5050565b6111b26111ac6118e6565b836119a7565b6111f1576040517f08c379a00000000000000000000000000000000000000000000000000000000081526004016111e8906130e2565b60405180910390fd5b6111fd84848484611e77565b50505050565b61120c82610c99565b73ffffffffffffffffffffffffffffffffffffffff163373ffffffffffffffffffffffffffffffffffffffff1614611279576040517f08c379a000000000000000000000000000000000000000000000000000000000815260040161127090613432565b60405180910390fd5b60028110156112bd576040517f08c379a00000000000000000000000000000000000000000000000000000000081526004016112b49061349e565b60405180910390fd5b806009819055505050565b60606112d38261187a565b611312576040517f08c379a000000000000000000000000000000000000000000000000000000000815260040161130990613530565b60405180910390fd5b600061131c611ed3565b9050600081511161133c5760405180602001604052806000815250611367565b8061134684611eea565b60405160200161135792919061358c565b6040516020818303038152906040525b915050919050565b61137881610c99565b73ffffffffffffffffffffffffffffffffffffffff163373ffffffffffffffffffffffffffffffffffffffff16146113e5576040517f08c379a00000000000000000000000000000000000000000000000000000000081526004016113dc90613432565b60405180910390fd5b600060098190555050565b60075481565b60095460098190555060026009541015611445576040517f08c379a000000000000000000000000000000000000000000000000000000000815260040161143c906135fc565b60405180910390fd5b60095434101561148a576040517f08c379a000000000000000000000000000000000000000000000000000000000815260040161148190613668565b60405180910390fd5b61149381610c99565b600c6001836114a2919061332d565b815481106114b3576114b2613361565b5b906000526020600020906008020160010160006101000a81548173ffffffffffffffffffffffffffffffffffffffff021916908373ffffffffffffffffffffffffffffffffffffffff16021790555061152f600b60009054906101000a900473ffffffffffffffffffffffffffffffffffffffff163383611a85565b600b60009054906101000a900473ffffffffffffffffffffffffffffffffffffffff1673ffffffffffffffffffffffffffffffffffffffff166108fc349081150290604051600060405180830381858888f19350505050158015611597573d6000803e3d6000fd5b507f2f50647b652db65cab46c417601830f88c5d539db446f10f72d560fdd9d8e2fc600b60009054906101000a900473ffffffffffffffffffffffffffffffffffffffff1633346040516115ed939291906136e7565b60405180910390a150565b6060600c805480602002602001604051908101604052809291908181526020016000905b8282101561177357838290600052602060002090600802016040518061010001604052908160008201805461165090612e88565b80601f016020809104026020016040519081016040528092919081815260200182805461167c90612e88565b80156116c95780601f1061169e576101008083540402835291602001916116c9565b820191906000526020600020905b8154815290600101906020018083116116ac57829003601f168201915b505050505081526020016001820160009054906101000a900473ffffffffffffffffffffffffffffffffffffffff1673ffffffffffffffffffffffffffffffffffffffff1673ffffffffffffffffffffffffffffffffffffffff16815260200160028201548152602001600382015481526020016004820154815260200160058201548152602001600682015481526020016007820154815250508152602001906001019061161c565b50505050905090565b6000600560008473ffffffffffffffffffffffffffffffffffffffff1673ffffffffffffffffffffffffffffffffffffffff16815260200190815260200160002060008373ffffffffffffffffffffffffffffffffffffffff1673ffffffffffffffffffffffffffffffffffffffff16815260200190815260200160002060009054906101000a900460ff16905092915050565b60007f01ffc9a7000000000000000000000000000000000000000000000000000000007bffffffffffffffffffffffffffffffffffffffffffffffffffffffff1916827bffffffffffffffffffffffffffffffffffffffffffffffffffffffff1916149050919050565b60008073ffffffffffffffffffffffffffffffffffffffff166002600084815260200190815260200160002060009054906101000a900473ffffffffffffffffffffffffffffffffffffffff1673ffffffffffffffffffffffffffffffffffffffff1614159050919050565b600033905090565b816004600083815260200190815260200160002060006101000a81548173ffffffffffffffffffffffffffffffffffffffff021916908373ffffffffffffffffffffffffffffffffffffffff160217905550808273ffffffffffffffffffffffffffffffffffffffff1661196183610c99565b73ffffffffffffffffffffffffffffffffffffffff167f8c5be1e5ebec7d5bd14f71427d1e84f3dd0314c0f7b2291e5b200ac8c7c3b92560405160405180910390a45050565b60006119b28261187a565b6119f1576040517f08c379a00000000000000000000000000000000000000000000000000000000081526004016119e890613790565b60405180910390fd5b60006119fc83610c99565b90508073ffffffffffffffffffffffffffffffffffffffff168473ffffffffffffffffffffffffffffffffffffffff161480611a3e5750611a3d818561177c565b5b80611a7c57508373ffffffffffffffffffffffffffffffffffffffff16611a648461081a565b73ffffffffffffffffffffffffffffffffffffffff16145b91505092915050565b8273ffffffffffffffffffffffffffffffffffffffff16611aa582610c99565b73ffffffffffffffffffffffffffffffffffffffff1614611afb576040517f08c379a0000000000000000000000000000000000000000000000000000000008152600401611af290613822565b60405180910390fd5b600073ffffffffffffffffffffffffffffffffffffffff168273ffffffffffffffffffffffffffffffffffffffff161415611b6b576040517f08c379a0000000000000000000000000000000000000000000000000000000008152600401611b62906138b4565b60405180910390fd5b611b7683838361204b565b611b816000826118ee565b6001600360008573ffffffffffffffffffffffffffffffffffffffff1673ffffffffffffffffffffffffffffffffffffffff1681526020019081526020016000206000828254611bd1919061332d565b925050819055506001600360008473ffffffffffffffffffffffffffffffffffffffff1673ffffffffffffffffffffffffffffffffffffffff1681526020019081526020016000206000828254611c289190613390565b92505081905550816002600083815260200190815260200160002060006101000a81548173ffffffffffffffffffffffffffffffffffffffff021916908373ffffffffffffffffffffffffffffffffffffffff160217905550808273ffffffffffffffffffffffffffffffffffffffff168473ffffffffffffffffffffffffffffffffffffffff167fddf252ad1be2c89b69c2b068fc378daa952ba7f163c4a11628f55a4df523b3ef60405160405180910390a4611ce7838383612050565b505050565b611d06828260405180602001604052806000815250612055565b5050565b8173ffffffffffffffffffffffffffffffffffffffff168373ffffffffffffffffffffffffffffffffffffffff161415611d79576040517f08c379a0000000000000000000000000000000000000000000000000000000008152600401611d7090613920565b60405180910390fd5b80600560008573ffffffffffffffffffffffffffffffffffffffff1673ffffffffffffffffffffffffffffffffffffffff16815260200190815260200160002060008473ffffffffffffffffffffffffffffffffffffffff1673ffffffffffffffffffffffffffffffffffffffff16815260200190815260200160002060006101000a81548160ff0219169083151502179055508173ffffffffffffffffffffffffffffffffffffffff168373ffffffffffffffffffffffffffffffffffffffff167f17307eab39ab6107e8899845ad3d59bd9653f200f220920489ca2b5937696c3183604051611e6a9190612553565b60405180910390a3505050565b611e82848484611a85565b611e8e848484846120b0565b611ecd576040517f08c379a0000000000000000000000000000000000000000000000000000000008152600401611ec4906139b2565b60405180910390fd5b50505050565b606060405180602001604052806000815250905090565b60606000821415611f32576040518060400160405280600181526020017f30000000000000000000000000000000000000000000000000000000000000008152509050612046565b600082905060005b60008214611f64578080611f4d906139d2565b915050600a82611f5d9190613a4a565b9150611f3a565b60008167ffffffffffffffff811115611f8057611f7f612a97565b5b6040519080825280601f01601f191660200182016040528015611fb25781602001600182028036833780820191505090505b5090505b6000851461203f57600182611fcb919061332d565b9150600a85611fda9190613a7b565b6030611fe69190613390565b60f81b818381518110611ffc57611ffb613361565b5b60200101907effffffffffffffffffffffffffffffffffffffffffffffffffffffffffffff1916908160001a905350600a856120389190613a4a565b9450611fb6565b8093505050505b919050565b505050565b505050565b61205f8383612247565b61206c60008484846120b0565b6120ab576040517f08c379a00000000000000000000000000000000000000000000000000000000081526004016120a2906139b2565b60405180910390fd5b505050565b60006120d18473ffffffffffffffffffffffffffffffffffffffff16612421565b1561223a578373ffffffffffffffffffffffffffffffffffffffff1663150b7a026120fa6118e6565b8786866040518563ffffffff1660e01b815260040161211c9493929190613b01565b602060405180830381600087803b15801561213657600080fd5b505af192505050801561216757506040513d601f19601f820116820180604052508101906121649190613b62565b60015b6121ea573d8060008114612197576040519150601f19603f3d011682016040523d82523d6000602084013e61219c565b606091505b506000815114156121e2576040517f08c379a00000000000000000000000000000000000000000000000000000000081526004016121d9906139b2565b60405180910390fd5b805181602001fd5b63150b7a0260e01b7bffffffffffffffffffffffffffffffffffffffffffffffffffffffff1916817bffffffffffffffffffffffffffffffffffffffffffffffffffffffff19161491505061223f565b600190505b949350505050565b600073ffffffffffffffffffffffffffffffffffffffff168273ffffffffffffffffffffffffffffffffffffffff1614156122b7576040517f08c379a00000000000000000000000000000000000000000000000000000000081526004016122ae90613bdb565b60405180910390fd5b6122c08161187a565b15612300576040517f08c379a00000000000000000000000000000000000000000000000000000000081526004016122f790613c47565b60405180910390fd5b61230c6000838361204b565b6001600360008473ffffffffffffffffffffffffffffffffffffffff1673ffffffffffffffffffffffffffffffffffffffff168152602001908152602001600020600082825461235c9190613390565b92505081905550816002600083815260200190815260200160002060006101000a81548173ffffffffffffffffffffffffffffffffffffffff021916908373ffffffffffffffffffffffffffffffffffffffff160217905550808273ffffffffffffffffffffffffffffffffffffffff16600073ffffffffffffffffffffffffffffffffffffffff167fddf252ad1be2c89b69c2b068fc378daa952ba7f163c4a11628f55a4df523b3ef60405160405180910390a461241d60008383612050565b5050565b6000808273ffffffffffffffffffffffffffffffffffffffff163b119050919050565b60405180610100016040528060608152602001600073ffffffffffffffffffffffffffffffffffffffff1681526020016000815260200160008152602001600081526020016000815260200160008152602001600081525090565b6000604051905090565b600080fd5b600080fd5b60007fffffffff0000000000000000000000000000000000000000000000000000000082169050919050565b6124e8816124b3565b81146124f357600080fd5b50565b600081359050612505816124df565b92915050565b600060208284031215612521576125206124a9565b5b600061252f848285016124f6565b91505092915050565b60008115159050919050565b61254d81612538565b82525050565b60006020820190506125686000830184612544565b92915050565b600081519050919050565b600082825260208201905092915050565b60005b838110156125a857808201518184015260208101905061258d565b838111156125b7576000848401525b50505050565b6000601f19601f8301169050919050565b60006125d98261256e565b6125e38185612579565b93506125f381856020860161258a565b6125fc816125bd565b840191505092915050565b6000602082019050818103600083015261262181846125ce565b905092915050565b6000819050919050565b61263c81612629565b811461264757600080fd5b50565b60008135905061265981612633565b92915050565b600060208284031215612675576126746124a9565b5b60006126838482850161264a565b91505092915050565b600073ffffffffffffffffffffffffffffffffffffffff82169050919050565b60006126b78261268c565b9050919050565b6126c7816126ac565b82525050565b60006020820190506126e260008301846126be565b92915050565b6126f1816126ac565b81146126fc57600080fd5b50565b60008135905061270e816126e8565b92915050565b6000806040838503121561272b5761272a6124a9565b5b6000612739858286016126ff565b925050602061274a8582860161264a565b9150509250929050565b61275d81612629565b82525050565b60006020820190506127786000830184612754565b92915050565b600080600060608486031215612797576127966124a9565b5b60006127a5868287016126ff565b93505060206127b6868287016126ff565b92505060406127c78682870161264a565b9150509250925092565b6000819050919050565b6127e4816127d1565b82525050565b6000610100820190508181036000830152612805818b6125ce565b9050612814602083018a6126be565b61282160408301896127db565b61282e60608301886127db565b61283b60808301876127db565b61284860a0830186612754565b61285560c0830185612754565b61286260e0830184612754565b9998505050505050505050565b600060208284031215612885576128846124a9565b5b6000612893848285016126ff565b91505092915050565b60006128a78261268c565b9050919050565b6128b78161289c565b82525050565b60006020820190506128d260008301846128ae565b92915050565b600082825260208201905092915050565b60006128f48261256e565b6128fe81856128d8565b935061290e81856020860161258a565b612917816125bd565b840191505092915050565b61292b816126ac565b82525050565b61293a816127d1565b82525050565b61294981612629565b82525050565b600061010083016000830151848203600086015261296d82826128e9565b91505060208301516129826020860182612922565b5060408301516129956040860182612931565b5060608301516129a86060860182612931565b5060808301516129bb6080860182612931565b5060a08301516129ce60a0860182612940565b5060c08301516129e160c0860182612940565b5060e08301516129f460e0860182612940565b508091505092915050565b60006020820190508181036000830152612a19818461294f565b905092915050565b612a2a81612538565b8114612a3557600080fd5b50565b600081359050612a4781612a21565b92915050565b60008060408385031215612a6457612a636124a9565b5b6000612a72858286016126ff565b9250506020612a8385828601612a38565b9150509250929050565b600080fd5b600080fd5b7f4e487b7100000000000000000000000000000000000000000000000000000000600052604160045260246000fd5b612acf826125bd565b810181811067ffffffffffffffff82111715612aee57612aed612a97565b5b80604052505050565b6000612b0161249f565b9050612b0d8282612ac6565b919050565b600067ffffffffffffffff821115612b2d57612b2c612a97565b5b612b36826125bd565b9050602081019050919050565b82818337600083830152505050565b6000612b65612b6084612b12565b612af7565b905082815260208101848484011115612b8157612b80612a92565b5b612b8c848285612b43565b509392505050565b600082601f830112612ba957612ba8612a8d565b5b8135612bb9848260208601612b52565b91505092915050565b60008060008060808587031215612bdc57612bdb6124a9565b5b6000612bea878288016126ff565b9450506020612bfb878288016126ff565b9350506040612c0c8782880161264a565b925050606085013567ffffffffffffffff811115612c2d57612c2c6124ae565b5b612c3987828801612b94565b91505092959194509250565b60008060408385031215612c5c57612c5b6124a9565b5b6000612c6a8582860161264a565b9250506020612c7b8582860161264a565b9150509250929050565b600081519050919050565b600082825260208201905092915050565b6000819050602082019050919050565b6000610100830160008301518482036000860152612ccf82826128e9565b9150506020830151612ce46020860182612922565b506040830151612cf76040860182612931565b506060830151612d0a6060860182612931565b506080830151612d1d6080860182612931565b5060a0830151612d3060a0860182612940565b5060c0830151612d4360c0860182612940565b5060e0830151612d5660e0860182612940565b508091505092915050565b6000612d6d8383612cb1565b905092915050565b6000602082019050919050565b6000612d8d82612c85565b612d978185612c90565b935083602082028501612da985612ca1565b8060005b85811015612de55784840389528151612dc68582612d61565b9450612dd183612d75565b925060208a01995050600181019050612dad565b50829750879550505050505092915050565b60006020820190508181036000830152612e118184612d82565b905092915050565b60008060408385031215612e3057612e2f6124a9565b5b6000612e3e858286016126ff565b9250506020612e4f858286016126ff565b9150509250929050565b7f4e487b7100000000000000000000000000000000000000000000000000000000600052602260045260246000fd5b60006002820490506001821680612ea057607f821691505b60208210811415612eb457612eb3612e59565b5b50919050565b7f4552433732313a20617070726f76656420717565727920666f72206e6f6e657860008201527f697374656e7420746f6b656e0000000000000000000000000000000000000000602082015250565b6000612f16602c83612579565b9150612f2182612eba565b604082019050919050565b60006020820190508181036000830152612f4581612f09565b9050919050565b7f4552433732313a20617070726f76616c20746f2063757272656e74206f776e6560008201527f7200000000000000000000000000000000000000000000000000000000000000602082015250565b6000612fa8602183612579565b9150612fb382612f4c565b604082019050919050565b60006020820190508181036000830152612fd781612f9b565b9050919050565b7f4552433732313a20617070726f76652063616c6c6572206973206e6f74206f7760008201527f6e6572206e6f7220617070726f76656420666f7220616c6c0000000000000000602082015250565b600061303a603883612579565b915061304582612fde565b604082019050919050565b600060208201905081810360008301526130698161302d565b9050919050565b7f4552433732313a207472616e736665722063616c6c6572206973206e6f74206f60008201527f776e6572206e6f7220617070726f766564000000000000000000000000000000602082015250565b60006130cc603183612579565b91506130d782613070565b604082019050919050565b600060208201905081810360008301526130fb816130bf565b9050919050565b7f4e6f74206f776e65720000000000000000000000000000000000000000000000600082015250565b6000613138600983612579565b915061314382613102565b602082019050919050565b600060208201905081810360008301526131678161312b565b9050919050565b7f42616c616e63652073686f756c64206265206d6f7265207468656e207a65726f600082015250565b60006131a4602083612579565b91506131af8261316e565b602082019050919050565b600060208201905081810360008301526131d381613197565b9050919050565b7f4552433732313a206f776e657220717565727920666f72206e6f6e657869737460008201527f656e7420746f6b656e0000000000000000000000000000000000000000000000602082015250565b6000613236602983612579565b9150613241826131da565b604082019050919050565b6000602082019050818103600083015261326581613229565b9050919050565b7f4552433732313a2062616c616e636520717565727920666f7220746865207a6560008201527f726f206164647265737300000000000000000000000000000000000000000000602082015250565b60006132c8602a83612579565b91506132d38261326c565b604082019050919050565b600060208201905081810360008301526132f7816132bb565b9050919050565b7f4e487b7100000000000000000000000000000000000000000000000000000000600052601160045260246000fd5b600061333882612629565b915061334383612629565b925082821015613356576133556132fe565b5b828203905092915050565b7f4e487b7100000000000000000000000000000000000000000000000000000000600052603260045260246000fd5b600061339b82612629565b91506133a683612629565b9250827fffffffffffffffffffffffffffffffffffffffffffffffffffffffffffffffff038211156133db576133da6132fe565b5b828201905092915050565b7f4e6f74206f776e6572206f66207468697320746f6b656e000000000000000000600082015250565b600061341c601783612579565b9150613427826133e6565b602082019050919050565b6000602082019050818103600083015261344b8161340f565b9050919050565b7f5072696365207a65726f00000000000000000000000000000000000000000000600082015250565b6000613488600a83612579565b915061349382613452565b602082019050919050565b600060208201905081810360008301526134b78161347b565b9050919050565b7f4552433732314d657461646174613a2055524920717565727920666f72206e6f60008201527f6e6578697374656e7420746f6b656e0000000000000000000000000000000000602082015250565b600061351a602f83612579565b9150613525826134be565b604082019050919050565b600060208201905081810360008301526135498161350d565b9050919050565b600081905092915050565b60006135668261256e565b6135708185613550565b935061358081856020860161258a565b80840191505092915050565b6000613598828561355b565b91506135a4828461355b565b91508190509392505050565b7f5468697320746f6b656e206973206e6f7420666f722073616c65000000000000600082015250565b60006135e6601a83612579565b91506135f1826135b0565b602082019050919050565b60006020820190508181036000830152613615816135d9565b9050919050565b7f496e636f72726563742076616c75650000000000000000000000000000000000600082015250565b6000613652600f83612579565b915061365d8261361c565b602082019050919050565b6000602082019050818103600083015261368181613645565b9050919050565b6000819050919050565b60006136ad6136a86136a38461268c565b613688565b61268c565b9050919050565b60006136bf82613692565b9050919050565b60006136d1826136b4565b9050919050565b6136e1816136c6565b82525050565b60006060820190506136fc60008301866136d8565b61370960208301856126be565b6137166040830184612754565b949350505050565b7f4552433732313a206f70657261746f7220717565727920666f72206e6f6e657860008201527f697374656e7420746f6b656e0000000000000000000000000000000000000000602082015250565b600061377a602c83612579565b91506137858261371e565b604082019050919050565b600060208201905081810360008301526137a98161376d565b9050919050565b7f4552433732313a207472616e736665722066726f6d20696e636f72726563742060008201527f6f776e6572000000000000000000000000000000000000000000000000000000602082015250565b600061380c602583612579565b9150613817826137b0565b604082019050919050565b6000602082019050818103600083015261383b816137ff565b9050919050565b7f4552433732313a207472616e7366657220746f20746865207a65726f2061646460008201527f7265737300000000000000000000000000000000000000000000000000000000602082015250565b600061389e602483612579565b91506138a982613842565b604082019050919050565b600060208201905081810360008301526138cd81613891565b9050919050565b7f4552433732313a20617070726f766520746f2063616c6c657200000000000000600082015250565b600061390a601983612579565b9150613915826138d4565b602082019050919050565b60006020820190508181036000830152613939816138fd565b9050919050565b7f4552433732313a207472616e7366657220746f206e6f6e20455243373231526560008201527f63656976657220696d706c656d656e7465720000000000000000000000000000602082015250565b600061399c603283612579565b91506139a782613940565b604082019050919050565b600060208201905081810360008301526139cb8161398f565b9050919050565b60006139dd82612629565b91507fffffffffffffffffffffffffffffffffffffffffffffffffffffffffffffffff821415613a1057613a0f6132fe565b5b600182019050919050565b7f4e487b7100000000000000000000000000000000000000000000000000000000600052601260045260246000fd5b6000613a5582612629565b9150613a6083612629565b925082613a7057613a6f613a1b565b5b828204905092915050565b6000613a8682612629565b9150613a9183612629565b925082613aa157613aa0613a1b565b5b828206905092915050565b600081519050919050565b600082825260208201905092915050565b6000613ad382613aac565b613add8185613ab7565b9350613aed81856020860161258a565b613af6816125bd565b840191505092915050565b6000608082019050613b1660008301876126be565b613b2360208301866126be565b613b306040830185612754565b8181036060830152613b428184613ac8565b905095945050505050565b600081519050613b5c816124df565b92915050565b600060208284031215613b7857613b776124a9565b5b6000613b8684828501613b4d565b91505092915050565b7f4552433732313a206d696e7420746f20746865207a65726f2061646472657373600082015250565b6000613bc5602083612579565b9150613bd082613b8f565b602082019050919050565b60006020820190508181036000830152613bf481613bb8565b9050919050565b7f4552433732313a20746f6b656e20616c7265616479206d696e74656400000000600082015250565b6000613c31601c83612579565b9150613c3c82613bfb565b602082019050919050565b60006020820190508181036000830152613c6081613c24565b905091905056fea2646970667358221220dfe376bbafa20e3d61fea676273229a5cb7fb0813641af2a1930b2f6be68db8e64736f6c63430008090033",
  "immutableReferences": {},
  "source": "// SPDX-License-Identifier: MIT\npragma solidity ^0.8.0;\n\nimport \"@openzeppelin/contracts/token/ERC721/ERC721.sol\";\n\ncontract Land1 is ERC721 {\n    uint256 public cost = 1 ether;\n    uint256 public maxSupply = 5;\n    uint256 public totalSupply = 0;\n\n    uint256 public price = 2 ether;\n\n    uint amount = 0; \n\n    address payable public owner; \n\n    struct Plot {\n        string name;\n        address owner;\n        int256 posX;\n        int256 posY;\n        int256 posZ;\n        uint256 sizeX;\n        uint256 sizeY;\n        uint256 sizeZ;\n    }\n\n    Plot[] public plots;\n\n    event PropertyNftBought(address _owner, address _buyer, uint256 _price);\n\n    constructor(\n        string memory _name,\n        string memory _symbol,\n        uint256 _cost,\n        uint256 _price\n    ) ERC721(_name, _symbol) {\n        cost = _cost;\n        price = _price;\n\n\n        plots.push(Plot('Plot 1', address(0x0), 0, 0, 0, 10, 10, 10));\n        plots.push(Plot('Plot 2', address(0x0), 0, 10, 0, 10, 5, 3));\n        plots.push(Plot('Plot 3', address(0x0), 0, -10, 0, 10, 5, 3));\n        plots.push(Plot('Plot 4', address(0x0), 10, 0, 0, 5, 25, 5));\n        plots.push(Plot('Plot 5', address(0x0), -10, 0, 0, 5, 25, 5));\n    }\n\n    function mint(uint256 _id) public payable {\n        uint256 supply = totalSupply;\n        require(supply <= maxSupply);\n        require(plots[_id - 1].owner == address(0x0));\n        require(msg.value >= cost);\n\n        // tokenID starts from 1, array starts from 0\n        plots[_id - 1].owner = msg.sender;\n        totalSupply = totalSupply + 1;\n\n        _safeMint(msg.sender, _id);\n    }\n\n    function getBuildings() public view returns (Plot[] memory) {\n        return plots;\n    }\n\n    function getBuilding(uint256 _id) public view returns (Plot memory) {\n        return plots[_id - 1];\n    }\n    //function transferFrom(\n    //    address from,\n    //    address to,\n    //    uint256 tokenId\n    //) public override {\n    //    require(\n    //        _isApprovedOrOwner(_msgSender(), tokenId),\n    //        \"ERC721: transfer caller is not owner nor approved\"\n    //    );\n\n        // Update Plot ownership\n    //    plots[tokenId - 1].owner = to;\n\n    //    _transfer(from, to, tokenId);\n    //}\n\n    function allowBuy(uint256 _id, uint256 _price) external {\n        require(msg.sender == ownerOf(_id), 'Not owner of this token');\n        require(_price >= 2, 'Price zero');\n        price = _price;\n    }\n\n    function disallowBuy(uint256 _id) external {\n        require(msg.sender == ownerOf(_id), 'Not owner of this token');\n        price = 0;\n    }\n\n    function buy(uint256 _id) external payable {\n        price = price;\n        require(price >= 2, 'This token is not for sale');\n        require(msg.value >= price, 'Incorrect value');\n        plots[_id - 1].owner = ownerOf(_id);\n        _transfer(owner, msg.sender, _id);\n        payable(owner).transfer(msg.value); \n\n        emit PropertyNftBought(owner, msg.sender, msg.value);\n    }\n\n    // Only the owner can execute functions\n    modifier onlyOwner() {\n        require(msg.sender == owner, 'Not owner');\n        _;\n    }\n    function receiveFromBuyer() public payable{\n        amount += msg.value;\n    }\n\n    function withdraw() public onlyOwner \n    {\n        uint balance = address(this).balance;\n        require(balance > 0, \"Balance should be more then zero\");\n        payable(owner).transfer(balance);\n        amount = 0;\n    }\n\n    function getBalance() public view returns (uint256){\n       return amount;\n    }\n}",
  "sourcePath": "/home/rahni/Documents/property_metaverse/src/contracts/Land1.sol",
  "compiler": {
    "name": "solc",
    "version": "0.8.9+commit.e5eed63a.Emscripten.clang"
  },
  "schemaVersion": "3.4.7",
  "updatedAt": "2022-05-15T18:48:14.928Z",
  "devdoc": {
    "kind": "dev",
    "methods": {
      "approve(address,uint256)": {
        "details": "See {IERC721-approve}."
      },
      "balanceOf(address)": {
        "details": "See {IERC721-balanceOf}."
      },
      "getApproved(uint256)": {
        "details": "See {IERC721-getApproved}."
      },
      "isApprovedForAll(address,address)": {
        "details": "See {IERC721-isApprovedForAll}."
      },
      "name()": {
        "details": "See {IERC721Metadata-name}."
      },
      "ownerOf(uint256)": {
        "details": "See {IERC721-ownerOf}."
      },
      "safeTransferFrom(address,address,uint256)": {
        "details": "See {IERC721-safeTransferFrom}."
      },
      "safeTransferFrom(address,address,uint256,bytes)": {
        "details": "See {IERC721-safeTransferFrom}."
      },
      "setApprovalForAll(address,bool)": {
        "details": "See {IERC721-setApprovalForAll}."
      },
      "supportsInterface(bytes4)": {
        "details": "See {IERC165-supportsInterface}."
      },
      "symbol()": {
        "details": "See {IERC721Metadata-symbol}."
      },
      "tokenURI(uint256)": {
        "details": "See {IERC721Metadata-tokenURI}."
      },
      "transferFrom(address,address,uint256)": {
        "details": "See {IERC721-transferFrom}."
      }
    },
    "version": 1
  },
  "userdoc": {
    "kind": "user",
    "methods": {},
    "version": 1
  }
}