{
  "contractName": "Land",
  "abi": [
    {
      "inputs": [
        {
          "internalType": "string",
          "name": "_name",
          "type": "string"
        },
        {
          "internalType": "string",
          "name": "_symbol",
          "type": "string"
        },
        {
          "internalType": "uint256",
          "name": "_cost",
          "type": "uint256"
        },
        {
          "internalType": "uint256",
          "name": "_memberCost",
          "type": "uint256"
        }
      ],
      "stateMutability": "nonpayable",
      "type": "constructor"
    },
    {
      "anonymous": false,
      "inputs": [
        {
          "indexed": true,
          "internalType": "address",
          "name": "owner",
          "type": "address"
        },
        {
          "indexed": true,
          "internalType": "address",
          "name": "approved",
          "type": "address"
        },
        {
          "indexed": true,
          "internalType": "uint256",
          "name": "tokenId",
          "type": "uint256"
        }
      ],
      "name": "Approval",
      "type": "event"
    },
    {
      "anonymous": false,
      "inputs": [
        {
          "indexed": true,
          "internalType": "address",
          "name": "owner",
          "type": "address"
        },
        {
          "indexed": true,
          "internalType": "address",
          "name": "operator",
          "type": "address"
        },
        {
          "indexed": false,
          "internalType": "bool",
          "name": "approved",
          "type": "bool"
        }
      ],
      "name": "ApprovalForAll",
      "type": "event"
    },
    {
      "anonymous": false,
      "inputs": [
        {
          "indexed": true,
          "internalType": "address",
          "name": "from",
          "type": "address"
        },
        {
          "indexed": true,
          "internalType": "address",
          "name": "to",
          "type": "address"
        },
        {
          "indexed": true,
          "internalType": "uint256",
          "name": "tokenId",
          "type": "uint256"
        }
      ],
      "name": "Transfer",
      "type": "event"
    },
    {
      "inputs": [
        {
          "internalType": "address",
          "name": "to",
          "type": "address"
        },
        {
          "internalType": "uint256",
          "name": "tokenId",
          "type": "uint256"
        }
      ],
      "name": "approve",
      "outputs": [],
      "stateMutability": "nonpayable",
      "type": "function"
    },
    {
      "inputs": [
        {
          "internalType": "address",
          "name": "owner",
          "type": "address"
        }
      ],
      "name": "balanceOf",
      "outputs": [
        {
          "internalType": "uint256",
          "name": "",
          "type": "uint256"
        }
      ],
      "stateMutability": "view",
      "type": "function",
      "constant": true
    },
    {
      "inputs": [
        {
          "internalType": "uint256",
          "name": "",
          "type": "uint256"
        }
      ],
      "name": "buildings",
      "outputs": [
        {
          "internalType": "string",
          "name": "name",
          "type": "string"
        },
        {
          "internalType": "address",
          "name": "owner",
          "type": "address"
        },
        {
          "internalType": "int256",
          "name": "posX",
          "type": "int256"
        },
        {
          "internalType": "int256",
          "name": "posY",
          "type": "int256"
        },
        {
          "internalType": "int256",
          "name": "posZ",
          "type": "int256"
        },
        {
          "internalType": "uint256",
          "name": "sizeX",
          "type": "uint256"
        },
        {
          "internalType": "uint256",
          "name": "sizeY",
          "type": "uint256"
        },
        {
          "internalType": "uint256",
          "name": "sizeZ",
          "type": "uint256"
        }
      ],
      "stateMutability": "view",
      "type": "function",
      "constant": true
    },
    {
      "inputs": [],
      "name": "cost",
      "outputs": [
        {
          "internalType": "uint256",
          "name": "",
          "type": "uint256"
        }
      ],
      "stateMutability": "view",
      "type": "function",
      "constant": true
    },
    {
      "inputs": [
        {
          "internalType": "uint256",
          "name": "tokenId",
          "type": "uint256"
        }
      ],
      "name": "getApproved",
      "outputs": [
        {
          "internalType": "address",
          "name": "",
          "type": "address"
        }
      ],
      "stateMutability": "view",
      "type": "function",
      "constant": true
    },
    {
      "inputs": [
        {
          "internalType": "address",
          "name": "owner",
          "type": "address"
        },
        {
          "internalType": "address",
          "name": "operator",
          "type": "address"
        }
      ],
      "name": "isApprovedForAll",
      "outputs": [
        {
          "internalType": "bool",
          "name": "",
          "type": "bool"
        }
      ],
      "stateMutability": "view",
      "type": "function",
      "constant": true
    },
    {
      "inputs": [],
      "name": "maxSupply",
      "outputs": [
        {
          "internalType": "uint256",
          "name": "",
          "type": "uint256"
        }
      ],
      "stateMutability": "view",
      "type": "function",
      "constant": true
    },
    {
      "inputs": [],
      "name": "memberCost",
      "outputs": [
        {
          "internalType": "uint256",
          "name": "",
          "type": "uint256"
        }
      ],
      "stateMutability": "view",
      "type": "function",
      "constant": true
    },
    {
      "inputs": [
        {
          "internalType": "uint256",
          "name": "",
          "type": "uint256"
        }
      ],
      "name": "members",
      "outputs": [
        {
          "internalType": "address",
          "name": "pubkey",
          "type": "address"
        },
        {
          "internalType": "string",
          "name": "name",
          "type": "string"
        }
      ],
      "stateMutability": "view",
      "type": "function",
      "constant": true
    },
    {
      "inputs": [],
      "name": "name",
      "outputs": [
        {
          "internalType": "string",
          "name": "",
          "type": "string"
        }
      ],
      "stateMutability": "view",
      "type": "function",
      "constant": true
    },
    {
      "inputs": [
        {
          "internalType": "uint256",
          "name": "tokenId",
          "type": "uint256"
        }
      ],
      "name": "ownerOf",
      "outputs": [
        {
          "internalType": "address",
          "name": "",
          "type": "address"
        }
      ],
      "stateMutability": "view",
      "type": "function",
      "constant": true
    },
    {
      "inputs": [
        {
          "internalType": "address",
          "name": "operator",
          "type": "address"
        },
        {
          "internalType": "bool",
          "name": "approved",
          "type": "bool"
        }
      ],
      "name": "setApprovalForAll",
      "outputs": [],
      "stateMutability": "nonpayable",
      "type": "function"
    },
    {
      "inputs": [
        {
          "internalType": "bytes4",
          "name": "interfaceId",
          "type": "bytes4"
        }
      ],
      "name": "supportsInterface",
      "outputs": [
        {
          "internalType": "bool",
          "name": "",
          "type": "bool"
        }
      ],
      "stateMutability": "view",
      "type": "function",
      "constant": true
    },
    {
      "inputs": [],
      "name": "symbol",
      "outputs": [
        {
          "internalType": "string",
          "name": "",
          "type": "string"
        }
      ],
      "stateMutability": "view",
      "type": "function",
      "constant": true
    },
    {
      "inputs": [
        {
          "internalType": "uint256",
          "name": "tokenId",
          "type": "uint256"
        }
      ],
      "name": "tokenURI",
      "outputs": [
        {
          "internalType": "string",
          "name": "",
          "type": "string"
        }
      ],
      "stateMutability": "view",
      "type": "function",
      "constant": true
    },
    {
      "inputs": [],
      "name": "totalSupply",
      "outputs": [
        {
          "internalType": "uint256",
          "name": "",
          "type": "uint256"
        }
      ],
      "stateMutability": "view",
      "type": "function",
      "constant": true
    },
    {
      "inputs": [
        {
          "internalType": "uint256",
          "name": "_id",
          "type": "uint256"
        }
      ],
      "name": "mint",
      "outputs": [],
      "stateMutability": "payable",
      "type": "function",
      "payable": true
    },
    {
      "inputs": [
        {
          "internalType": "uint256",
          "name": "_id",
          "type": "uint256"
        }
      ],
      "name": "memberMint",
      "outputs": [],
      "stateMutability": "payable",
      "type": "function",
      "payable": true
    },
    {
      "inputs": [
        {
          "internalType": "address",
          "name": "from",
          "type": "address"
        },
        {
          "internalType": "address",
          "name": "to",
          "type": "address"
        },
        {
          "internalType": "uint256",
          "name": "tokenId",
          "type": "uint256"
        }
      ],
      "name": "transferFrom",
      "outputs": [],
      "stateMutability": "nonpayable",
      "type": "function"
    },
    {
      "inputs": [
        {
          "internalType": "address",
          "name": "from",
          "type": "address"
        },
        {
          "internalType": "address",
          "name": "to",
          "type": "address"
        },
        {
          "internalType": "uint256",
          "name": "tokenId",
          "type": "uint256"
        }
      ],
      "name": "safeTransferFrom",
      "outputs": [],
      "stateMutability": "nonpayable",
      "type": "function"
    },
    {
      "inputs": [
        {
          "internalType": "address",
          "name": "from",
          "type": "address"
        },
        {
          "internalType": "address",
          "name": "to",
          "type": "address"
        },
        {
          "internalType": "uint256",
          "name": "tokenId",
          "type": "uint256"
        },
        {
          "internalType": "bytes",
          "name": "_data",
          "type": "bytes"
        }
      ],
      "name": "safeTransferFrom",
      "outputs": [],
      "stateMutability": "nonpayable",
      "type": "function"
    },
    {
      "inputs": [],
      "name": "getBuildings",
      "outputs": [
        {
          "components": [
            {
              "internalType": "string",
              "name": "name",
              "type": "string"
            },
            {
              "internalType": "address",
              "name": "owner",
              "type": "address"
            },
            {
              "internalType": "int256",
              "name": "posX",
              "type": "int256"
            },
            {
              "internalType": "int256",
              "name": "posY",
              "type": "int256"
            },
            {
              "internalType": "int256",
              "name": "posZ",
              "type": "int256"
            },
            {
              "internalType": "uint256",
              "name": "sizeX",
              "type": "uint256"
            },
            {
              "internalType": "uint256",
              "name": "sizeY",
              "type": "uint256"
            },
            {
              "internalType": "uint256",
              "name": "sizeZ",
              "type": "uint256"
            }
          ],
          "internalType": "struct Land.Building[]",
          "name": "",
          "type": "tuple[]"
        }
      ],
      "stateMutability": "view",
      "type": "function",
      "constant": true
    },
    {
      "inputs": [
        {
          "internalType": "uint256",
          "name": "_id",
          "type": "uint256"
        }
      ],
      "name": "getBuilding",
      "outputs": [
        {
          "components": [
            {
              "internalType": "string",
              "name": "name",
              "type": "string"
            },
            {
              "internalType": "address",
              "name": "owner",
              "type": "address"
            },
            {
              "internalType": "int256",
              "name": "posX",
              "type": "int256"
            },
            {
              "internalType": "int256",
              "name": "posY",
              "type": "int256"
            },
            {
              "internalType": "int256",
              "name": "posZ",
              "type": "int256"
            },
            {
              "internalType": "uint256",
              "name": "sizeX",
              "type": "uint256"
            },
            {
              "internalType": "uint256",
              "name": "sizeY",
              "type": "uint256"
            },
            {
              "internalType": "uint256",
              "name": "sizeZ",
              "type": "uint256"
            }
          ],
          "internalType": "struct Land.Building",
          "name": "",
          "type": "tuple"
        }
      ],
      "stateMutability": "view",
      "type": "function",
      "constant": true
    },
    {
      "inputs": [
        {
          "internalType": "uint256",
          "name": "_id",
          "type": "uint256"
        }
      ],
      "name": "getOwnedBuildings",
      "outputs": [
        {
          "components": [
            {
              "internalType": "string",
              "name": "name",
              "type": "string"
            },
            {
              "internalType": "address",
              "name": "owner",
              "type": "address"
            },
            {
              "internalType": "int256",
              "name": "posX",
              "type": "int256"
            },
            {
              "internalType": "int256",
              "name": "posY",
              "type": "int256"
            },
            {
              "internalType": "int256",
              "name": "posZ",
              "type": "int256"
            },
            {
              "internalType": "uint256",
              "name": "sizeX",
              "type": "uint256"
            },
            {
              "internalType": "uint256",
              "name": "sizeY",
              "type": "uint256"
            },
            {
              "internalType": "uint256",
              "name": "sizeZ",
              "type": "uint256"
            }
          ],
          "internalType": "struct Land.Building",
          "name": "",
          "type": "tuple"
        }
      ],
      "stateMutability": "view",
      "type": "function",
      "constant": true
    },
    {
      "inputs": [
        {
          "internalType": "address",
          "name": "pubkey",
          "type": "address"
        },
        {
          "internalType": "string",
          "name": "name",
          "type": "string"
        },
        {
          "components": [
            {
              "internalType": "address",
              "name": "pubkey",
              "type": "address"
            },
            {
              "internalType": "string",
              "name": "name",
              "type": "string"
            }
          ],
          "internalType": "struct Land.Member",
          "name": "",
          "type": "tuple"
        }
      ],
      "name": "addMemberToBuilding",
      "outputs": [],
      "stateMutability": "payable",
      "type": "function",
      "payable": true
    },
    {
      "inputs": [],
      "name": "getMembers",
      "outputs": [
        {
          "components": [
            {
              "internalType": "address",
              "name": "pubkey",
              "type": "address"
            },
            {
              "internalType": "string",
              "name": "name",
              "type": "string"
            }
          ],
          "internalType": "struct Land.Member[]",
          "name": "",
          "type": "tuple[]"
        }
      ],
      "stateMutability": "view",
      "type": "function",
      "constant": true
    }
  ],
  "bytecode": "0x6080604052670de0b6b3a764000060065560056007556000600855670de0b6b3a76400006009553480156200003357600080fd5b5060405162004a0738038062004a07833981810160405281019062000059919062000a34565b8383816000908051906020019062000073929190620007ac565b5080600190805190602001906200008c929190620007ac565b5050508160068190555080600981905550600a6040518061010001604052806040518060400160405280600e81526020017f53706f72747320436f6d706c65780000000000000000000000000000000000008152508152602001600073ffffffffffffffffffffffffffffffffffffffff168152602001600081526020016000815260200160008152602001600a8152602001600a8152602001600a8152509080600181540180825580915050600190039060005260206000209060080201600090919091909150600082015181600001908051906020019062000172929190620007ac565b5060208201518160010160006101000a81548173ffffffffffffffffffffffffffffffffffffffff021916908373ffffffffffffffffffffffffffffffffffffffff16021790555060408201518160020155606082015181600301556080820151816004015560a0820151816005015560c0820151816006015560e082015181600701555050600a6040518061010001604052806040518060400160405280600781526020017f5374616469756d000000000000000000000000000000000000000000000000008152508152602001600073ffffffffffffffffffffffffffffffffffffffff16815260200160008152602001600a815260200160008152602001600a815260200160058152602001600381525090806001815401808255809150506001900390600052602060002090600802016000909190919091506000820151816000019080519060200190620002cd929190620007ac565b5060208201518160010160006101000a81548173ffffffffffffffffffffffffffffffffffffffff021916908373ffffffffffffffffffffffffffffffffffffffff16021790555060408201518160020155606082015181600301556080820151816004015560a0820151816005015560c0820151816006015560e082015181600701555050600a6040518061010001604052806040518060400160405280600a81526020017f556e6976657273697479000000000000000000000000000000000000000000008152508152602001600073ffffffffffffffffffffffffffffffffffffffff168152602001600081526020017ffffffffffffffffffffffffffffffffffffffffffffffffffffffffffffffff6815260200160008152602001600a81526020016005815260200160038152509080600181540180825580915050600190039060005260206000209060080201600090919091909150600082015181600001908051906020019062000447929190620007ac565b5060208201518160010160006101000a81548173ffffffffffffffffffffffffffffffffffffffff021916908373ffffffffffffffffffffffffffffffffffffffff16021790555060408201518160020155606082015181600301556080820151816004015560a0820151816005015560c0820151816006015560e082015181600701555050600a6040518061010001604052806040518060400160405280600881526020017f54656368204875620000000000000000000000000000000000000000000000008152508152602001600073ffffffffffffffffffffffffffffffffffffffff168152602001600a815260200160008152602001600081526020016005815260200160198152602001600581525090806001815401808255809150506001900390600052602060002090600802016000909190919091506000820151816000019080519060200190620005a2929190620007ac565b5060208201518160010160006101000a81548173ffffffffffffffffffffffffffffffffffffffff021916908373ffffffffffffffffffffffffffffffffffffffff16021790555060408201518160020155606082015181600301556080820151816004015560a0820151816005015560c0820151816006015560e082015181600701555050600a6040518061010001604052806040518060400160405280600e81526020017f53686f7070696e6720506c617a610000000000000000000000000000000000008152508152602001600073ffffffffffffffffffffffffffffffffffffffff1681526020017ffffffffffffffffffffffffffffffffffffffffffffffffffffffffffffffff68152602001600081526020016000815260200160058152602001601981526020016005815250908060018154018082558091505060019003906000526020600020906008020160009091909190915060008201518160000190805190602001906200071c929190620007ac565b5060208201518160010160006101000a81548173ffffffffffffffffffffffffffffffffffffffff021916908373ffffffffffffffffffffffffffffffffffffffff16021790555060408201518160020155606082015181600301556080820151816004015560a0820151816005015560c0820151816006015560e0820151816007015550505050505062000b49565b828054620007ba9062000b13565b90600052602060002090601f016020900481019282620007de57600085556200082a565b82601f10620007f957805160ff19168380011785556200082a565b828001600101855582156200082a579182015b82811115620008295782518255916020019190600101906200080c565b5b5090506200083991906200083d565b5090565b5b80821115620008585760008160009055506001016200083e565b5090565b6000604051905090565b600080fd5b600080fd5b600080fd5b600080fd5b6000601f19601f8301169050919050565b7f4e487b7100000000000000000000000000000000000000000000000000000000600052604160045260246000fd5b620008c5826200087a565b810181811067ffffffffffffffff82111715620008e757620008e66200088b565b5b80604052505050565b6000620008fc6200085c565b90506200090a8282620008ba565b919050565b600067ffffffffffffffff8211156200092d576200092c6200088b565b5b62000938826200087a565b9050602081019050919050565b60005b838110156200096557808201518184015260208101905062000948565b8381111562000975576000848401525b50505050565b6000620009926200098c846200090f565b620008f0565b905082815260208101848484011115620009b157620009b062000875565b5b620009be84828562000945565b509392505050565b600082601f830112620009de57620009dd62000870565b5b8151620009f08482602086016200097b565b91505092915050565b6000819050919050565b62000a0e81620009f9565b811462000a1a57600080fd5b50565b60008151905062000a2e8162000a03565b92915050565b6000806000806080858703121562000a515762000a5062000866565b5b600085015167ffffffffffffffff81111562000a725762000a716200086b565b5b62000a8087828801620009c6565b945050602085015167ffffffffffffffff81111562000aa45762000aa36200086b565b5b62000ab287828801620009c6565b935050604062000ac58782880162000a1d565b925050606062000ad88782880162000a1d565b91505092959194509250565b7f4e487b7100000000000000000000000000000000000000000000000000000000600052602260045260246000fd5b6000600282049050600182168062000b2c57607f821691505b6020821081141562000b435762000b4262000ae4565b5b50919050565b613eae8062000b596000396000f3fe6080604052600436106101815760003560e01c806395d89b41116100d1578063b88d4fde1161008a578063d9cf6a2611610064578063d9cf6a26146105a8578063dfff4c1c146105d3578063e985e9c514610610578063fe7d09481461064d57610181565b8063b88d4fde14610517578063c87b56dd14610540578063d5abeb011461057d57610181565b806395d89b41146104145780639dfd8b021461043f5780639eab52531461047c578063a0712d68146104a7578063a22cb465146104c3578063b42fa83d146104ec57610181565b806323b872dd1161013e5780634c96a062116101185780634c96a062146103185780635daf08ca1461035c5780636352211e1461039a57806370a08231146103d757610181565b806323b872dd146102aa57806342842e0e146102d35780634410a8f6146102fc57610181565b806301ffc9a71461018657806306fdde03146101c3578063081812fc146101ee578063095ea7b31461022b57806313faede61461025457806318160ddd1461027f575b600080fd5b34801561019257600080fd5b506101ad60048036038101906101a89190612731565b610669565b6040516101ba9190612779565b60405180910390f35b3480156101cf57600080fd5b506101d861074b565b6040516101e5919061282d565b60405180910390f35b3480156101fa57600080fd5b5061021560048036038101906102109190612885565b6107dd565b60405161022291906128f3565b60405180910390f35b34801561023757600080fd5b50610252600480360381019061024d919061293a565b610862565b005b34801561026057600080fd5b5061026961097a565b6040516102769190612989565b60405180910390f35b34801561028b57600080fd5b50610294610980565b6040516102a19190612989565b60405180910390f35b3480156102b657600080fd5b506102d160048036038101906102cc91906129a4565b610986565b005b3480156102df57600080fd5b506102fa60048036038101906102f591906129a4565b610a56565b005b61031660048036038101906103119190612885565b610a76565b005b34801561032457600080fd5b5061033f600480360381019061033a9190612885565b610b1d565b604051610353989796959493929190612a10565b60405180910390f35b34801561036857600080fd5b50610383600480360381019061037e9190612885565b610c1d565b604051610391929190612a95565b60405180910390f35b3480156103a657600080fd5b506103c160048036038101906103bc9190612885565b610cf9565b6040516103ce91906128f3565b60405180910390f35b3480156103e357600080fd5b506103fe60048036038101906103f99190612ac5565b610dab565b60405161040b9190612989565b60405180910390f35b34801561042057600080fd5b50610429610e63565b604051610436919061282d565b60405180910390f35b34801561044b57600080fd5b5061046660048036038101906104619190612885565b610ef5565b6040516104739190612c19565b60405180910390f35b34801561048857600080fd5b50610491611062565b60405161049e9190612d3a565b60405180910390f35b6104c160048036038101906104bc9190612885565b6111a9565b005b3480156104cf57600080fd5b506104ea60048036038101906104e59190612d88565b6112eb565b005b3480156104f857600080fd5b50610501611301565b60405161050e9190612989565b60405180910390f35b34801561052357600080fd5b5061053e60048036038101906105399190612efd565b611307565b005b34801561054c57600080fd5b5061056760048036038101906105629190612885565b6113d9565b604051610574919061282d565b60405180910390f35b34801561058957600080fd5b50610592611480565b60405161059f9190612989565b60405180910390f35b3480156105b457600080fd5b506105bd611486565b6040516105ca91906130f2565b60405180910390f35b3480156105df57600080fd5b506105fa60048036038101906105f59190612885565b61160a565b6040516106079190612c19565b60405180910390f35b34801561061c57600080fd5b5061063760048036038101906106329190613114565b611838565b6040516106449190612779565b60405180910390f35b6106676004803603810190610662919061326b565b6118cc565b005b60007f80ac58cd000000000000000000000000000000000000000000000000000000007bffffffffffffffffffffffffffffffffffffffffffffffffffffffff1916827bffffffffffffffffffffffffffffffffffffffffffffffffffffffff1916148061073457507f5b5e139f000000000000000000000000000000000000000000000000000000007bffffffffffffffffffffffffffffffffffffffffffffffffffffffff1916827bffffffffffffffffffffffffffffffffffffffffffffffffffffffff1916145b80610744575061074382611993565b5b9050919050565b60606000805461075a90613325565b80601f016020809104026020016040519081016040528092919081815260200182805461078690613325565b80156107d35780601f106107a8576101008083540402835291602001916107d3565b820191906000526020600020905b8154815290600101906020018083116107b657829003601f168201915b5050505050905090565b60006107e8826119fd565b610827576040517f08c379a000000000000000000000000000000000000000000000000000000000815260040161081e906133c9565b60405180910390fd5b6004600083815260200190815260200160002060009054906101000a900473ffffffffffffffffffffffffffffffffffffffff169050919050565b600061086d82610cf9565b90508073ffffffffffffffffffffffffffffffffffffffff168373ffffffffffffffffffffffffffffffffffffffff1614156108de576040517f08c379a00000000000000000000000000000000000000000000000000000000081526004016108d59061345b565b60405180910390fd5b8073ffffffffffffffffffffffffffffffffffffffff166108fd611a69565b73ffffffffffffffffffffffffffffffffffffffff16148061092c575061092b81610926611a69565b611838565b5b61096b576040517f08c379a0000000000000000000000000000000000000000000000000000000008152600401610962906134ed565b60405180910390fd5b6109758383611a71565b505050565b60065481565b60085481565b610997610991611a69565b82611b2a565b6109d6576040517f08c379a00000000000000000000000000000000000000000000000000000000081526004016109cd9061357f565b60405180910390fd5b81600a6001836109e691906135ce565b815481106109f7576109f6613602565b5b906000526020600020906008020160010160006101000a81548173ffffffffffffffffffffffffffffffffffffffff021916908373ffffffffffffffffffffffffffffffffffffffff160217905550610a51838383611c08565b505050565b610a7183838360405180602001604052806000815250611307565b505050565b600073ffffffffffffffffffffffffffffffffffffffff16600a600183610a9d91906135ce565b81548110610aae57610aad613602565b5b906000526020600020906008020160010160009054906101000a900473ffffffffffffffffffffffffffffffffffffffff1673ffffffffffffffffffffffffffffffffffffffff161415610b0157600080fd5b600954341015610b1057600080fd5b610b1a3382611e6f565b50565b600a8181548110610b2d57600080fd5b9060005260206000209060080201600091509050806000018054610b5090613325565b80601f0160208091040260200160405190810160405280929190818152602001828054610b7c90613325565b8015610bc95780601f10610b9e57610100808354040283529160200191610bc9565b820191906000526020600020905b815481529060010190602001808311610bac57829003601f168201915b5050505050908060010160009054906101000a900473ffffffffffffffffffffffffffffffffffffffff16908060020154908060030154908060040154908060050154908060060154908060070154905088565b600b8181548110610c2d57600080fd5b90600052602060002090600202016000915090508060000160009054906101000a900473ffffffffffffffffffffffffffffffffffffffff1690806001018054610c7690613325565b80601f0160208091040260200160405190810160405280929190818152602001828054610ca290613325565b8015610cef5780601f10610cc457610100808354040283529160200191610cef565b820191906000526020600020905b815481529060010190602001808311610cd257829003601f168201915b5050505050905082565b6000806002600084815260200190815260200160002060009054906101000a900473ffffffffffffffffffffffffffffffffffffffff169050600073ffffffffffffffffffffffffffffffffffffffff168173ffffffffffffffffffffffffffffffffffffffff161415610da2576040517f08c379a0000000000000000000000000000000000000000000000000000000008152600401610d99906136a3565b60405180910390fd5b80915050919050565b60008073ffffffffffffffffffffffffffffffffffffffff168273ffffffffffffffffffffffffffffffffffffffff161415610e1c576040517f08c379a0000000000000000000000000000000000000000000000000000000008152600401610e1390613735565b60405180910390fd5b600360008373ffffffffffffffffffffffffffffffffffffffff1673ffffffffffffffffffffffffffffffffffffffff168152602001908152602001600020549050919050565b606060018054610e7290613325565b80601f0160208091040260200160405190810160405280929190818152602001828054610e9e90613325565b8015610eeb5780601f10610ec057610100808354040283529160200191610eeb565b820191906000526020600020905b815481529060010190602001808311610ece57829003601f168201915b5050505050905090565b610efd6125c7565b600a600183610f0c91906135ce565b81548110610f1d57610f1c613602565b5b906000526020600020906008020160405180610100016040529081600082018054610f4790613325565b80601f0160208091040260200160405190810160405280929190818152602001828054610f7390613325565b8015610fc05780601f10610f9557610100808354040283529160200191610fc0565b820191906000526020600020905b815481529060010190602001808311610fa357829003601f168201915b505050505081526020016001820160009054906101000a900473ffffffffffffffffffffffffffffffffffffffff1673ffffffffffffffffffffffffffffffffffffffff1673ffffffffffffffffffffffffffffffffffffffff16815260200160028201548152602001600382015481526020016004820154815260200160058201548152602001600682015481526020016007820154815250509050919050565b6060600b805480602002602001604051908101604052809291908181526020016000905b828210156111a057838290600052602060002090600202016040518060400160405290816000820160009054906101000a900473ffffffffffffffffffffffffffffffffffffffff1673ffffffffffffffffffffffffffffffffffffffff1673ffffffffffffffffffffffffffffffffffffffff16815260200160018201805461110f90613325565b80601f016020809104026020016040519081016040528092919081815260200182805461113b90613325565b80156111885780601f1061115d57610100808354040283529160200191611188565b820191906000526020600020905b81548152906001019060200180831161116b57829003601f168201915b50505050508152505081526020019060010190611086565b50505050905090565b600060085490506007548111156111bf57600080fd5b600073ffffffffffffffffffffffffffffffffffffffff16600a6001846111e691906135ce565b815481106111f7576111f6613602565b5b906000526020600020906008020160010160009054906101000a900473ffffffffffffffffffffffffffffffffffffffff1673ffffffffffffffffffffffffffffffffffffffff161461124957600080fd5b60065434101561125857600080fd5b33600a60018461126891906135ce565b8154811061127957611278613602565b5b906000526020600020906008020160010160006101000a81548173ffffffffffffffffffffffffffffffffffffffff021916908373ffffffffffffffffffffffffffffffffffffffff16021790555060016008546112d79190613755565b6008819055506112e73383611e6f565b5050565b6112fd6112f6611a69565b8383611e8d565b5050565b60095481565b611318611312611a69565b83611b2a565b611357576040517f08c379a000000000000000000000000000000000000000000000000000000000815260040161134e9061357f565b60405180910390fd5b82600a60018461136791906135ce565b8154811061137857611377613602565b5b906000526020600020906008020160010160006101000a81548173ffffffffffffffffffffffffffffffffffffffff021916908373ffffffffffffffffffffffffffffffffffffffff1602179055506113d384848484611ffa565b50505050565b60606113e4826119fd565b611423576040517f08c379a000000000000000000000000000000000000000000000000000000000815260040161141a9061381d565b60405180910390fd5b600061142d612056565b9050600081511161144d5760405180602001604052806000815250611478565b806114578461206d565b604051602001611468929190613879565b6040516020818303038152906040525b915050919050565b60075481565b6060600a805480602002602001604051908101604052809291908181526020016000905b828210156116015783829060005260206000209060080201604051806101000160405290816000820180546114de90613325565b80601f016020809104026020016040519081016040528092919081815260200182805461150a90613325565b80156115575780601f1061152c57610100808354040283529160200191611557565b820191906000526020600020905b81548152906001019060200180831161153a57829003601f168201915b505050505081526020016001820160009054906101000a900473ffffffffffffffffffffffffffffffffffffffff1673ffffffffffffffffffffffffffffffffffffffff1673ffffffffffffffffffffffffffffffffffffffff1681526020016002820154815260200160038201548152602001600482015481526020016005820154815260200160068201548152602001600782015481525050815260200190600101906114aa565b50505050905090565b6116126125c7565b600073ffffffffffffffffffffffffffffffffffffffff16600a60018461163991906135ce565b8154811061164a57611649613602565b5b906000526020600020906008020160010160009054906101000a900473ffffffffffffffffffffffffffffffffffffffff1673ffffffffffffffffffffffffffffffffffffffff1614156116d3576040517f08c379a00000000000000000000000000000000000000000000000000000000081526004016116ca9061390f565b60405180910390fd5b600a6001836116e291906135ce565b815481106116f3576116f2613602565b5b90600052602060002090600802016040518061010001604052908160008201805461171d90613325565b80601f016020809104026020016040519081016040528092919081815260200182805461174990613325565b80156117965780601f1061176b57610100808354040283529160200191611796565b820191906000526020600020905b81548152906001019060200180831161177957829003601f168201915b505050505081526020016001820160009054906101000a900473ffffffffffffffffffffffffffffffffffffffff1673ffffffffffffffffffffffffffffffffffffffff1673ffffffffffffffffffffffffffffffffffffffff16815260200160028201548152602001600382015481526020016004820154815260200160058201548152602001600682015481526020016007820154815250509050919050565b6000600560008473ffffffffffffffffffffffffffffffffffffffff1673ffffffffffffffffffffffffffffffffffffffff16815260200190815260200160002060008373ffffffffffffffffffffffffffffffffffffffff1673ffffffffffffffffffffffffffffffffffffffff16815260200190815260200160002060009054906101000a900460ff16905092915050565b600060405180604001604052808573ffffffffffffffffffffffffffffffffffffffff168152602001848152509050600b81908060018154018082558091505060019003906000526020600020906002020160009091909190915060008201518160000160006101000a81548173ffffffffffffffffffffffffffffffffffffffff021916908373ffffffffffffffffffffffffffffffffffffffff160217905550602082015181600101908051906020019061198a929190612622565b50505050505050565b60007f01ffc9a7000000000000000000000000000000000000000000000000000000007bffffffffffffffffffffffffffffffffffffffffffffffffffffffff1916827bffffffffffffffffffffffffffffffffffffffffffffffffffffffff1916149050919050565b60008073ffffffffffffffffffffffffffffffffffffffff166002600084815260200190815260200160002060009054906101000a900473ffffffffffffffffffffffffffffffffffffffff1673ffffffffffffffffffffffffffffffffffffffff1614159050919050565b600033905090565b816004600083815260200190815260200160002060006101000a81548173ffffffffffffffffffffffffffffffffffffffff021916908373ffffffffffffffffffffffffffffffffffffffff160217905550808273ffffffffffffffffffffffffffffffffffffffff16611ae483610cf9565b73ffffffffffffffffffffffffffffffffffffffff167f8c5be1e5ebec7d5bd14f71427d1e84f3dd0314c0f7b2291e5b200ac8c7c3b92560405160405180910390a45050565b6000611b35826119fd565b611b74576040517f08c379a0000000000000000000000000000000000000000000000000000000008152600401611b6b906139a1565b60405180910390fd5b6000611b7f83610cf9565b90508073ffffffffffffffffffffffffffffffffffffffff168473ffffffffffffffffffffffffffffffffffffffff161480611bc15750611bc08185611838565b5b80611bff57508373ffffffffffffffffffffffffffffffffffffffff16611be7846107dd565b73ffffffffffffffffffffffffffffffffffffffff16145b91505092915050565b8273ffffffffffffffffffffffffffffffffffffffff16611c2882610cf9565b73ffffffffffffffffffffffffffffffffffffffff1614611c7e576040517f08c379a0000000000000000000000000000000000000000000000000000000008152600401611c7590613a33565b60405180910390fd5b600073ffffffffffffffffffffffffffffffffffffffff168273ffffffffffffffffffffffffffffffffffffffff161415611cee576040517f08c379a0000000000000000000000000000000000000000000000000000000008152600401611ce590613ac5565b60405180910390fd5b611cf98383836121ce565b611d04600082611a71565b6001600360008573ffffffffffffffffffffffffffffffffffffffff1673ffffffffffffffffffffffffffffffffffffffff1681526020019081526020016000206000828254611d5491906135ce565b925050819055506001600360008473ffffffffffffffffffffffffffffffffffffffff1673ffffffffffffffffffffffffffffffffffffffff1681526020019081526020016000206000828254611dab9190613755565b92505081905550816002600083815260200190815260200160002060006101000a81548173ffffffffffffffffffffffffffffffffffffffff021916908373ffffffffffffffffffffffffffffffffffffffff160217905550808273ffffffffffffffffffffffffffffffffffffffff168473ffffffffffffffffffffffffffffffffffffffff167fddf252ad1be2c89b69c2b068fc378daa952ba7f163c4a11628f55a4df523b3ef60405160405180910390a4611e6a8383836121d3565b505050565b611e898282604051806020016040528060008152506121d8565b5050565b8173ffffffffffffffffffffffffffffffffffffffff168373ffffffffffffffffffffffffffffffffffffffff161415611efc576040517f08c379a0000000000000000000000000000000000000000000000000000000008152600401611ef390613b31565b60405180910390fd5b80600560008573ffffffffffffffffffffffffffffffffffffffff1673ffffffffffffffffffffffffffffffffffffffff16815260200190815260200160002060008473ffffffffffffffffffffffffffffffffffffffff1673ffffffffffffffffffffffffffffffffffffffff16815260200190815260200160002060006101000a81548160ff0219169083151502179055508173ffffffffffffffffffffffffffffffffffffffff168373ffffffffffffffffffffffffffffffffffffffff167f17307eab39ab6107e8899845ad3d59bd9653f200f220920489ca2b5937696c3183604051611fed9190612779565b60405180910390a3505050565b612005848484611c08565b61201184848484612233565b612050576040517f08c379a000000000000000000000000000000000000000000000000000000000815260040161204790613bc3565b60405180910390fd5b50505050565b606060405180602001604052806000815250905090565b606060008214156120b5576040518060400160405280600181526020017f300000000000000000000000000000000000000000000000000000000000000081525090506121c9565b600082905060005b600082146120e75780806120d090613be3565b915050600a826120e09190613c5b565b91506120bd565b60008167ffffffffffffffff81111561210357612102612dd2565b5b6040519080825280601f01601f1916602001820160405280156121355781602001600182028036833780820191505090505b5090505b600085146121c25760018261214e91906135ce565b9150600a8561215d9190613c8c565b60306121699190613755565b60f81b81838151811061217f5761217e613602565b5b60200101907effffffffffffffffffffffffffffffffffffffffffffffffffffffffffffff1916908160001a905350600a856121bb9190613c5b565b9450612139565b8093505050505b919050565b505050565b505050565b6121e283836123ca565b6121ef6000848484612233565b61222e576040517f08c379a000000000000000000000000000000000000000000000000000000000815260040161222590613bc3565b60405180910390fd5b505050565b60006122548473ffffffffffffffffffffffffffffffffffffffff166125a4565b156123bd578373ffffffffffffffffffffffffffffffffffffffff1663150b7a0261227d611a69565b8786866040518563ffffffff1660e01b815260040161229f9493929190613d12565b602060405180830381600087803b1580156122b957600080fd5b505af19250505080156122ea57506040513d601f19601f820116820180604052508101906122e79190613d73565b60015b61236d573d806000811461231a576040519150601f19603f3d011682016040523d82523d6000602084013e61231f565b606091505b50600081511415612365576040517f08c379a000000000000000000000000000000000000000000000000000000000815260040161235c90613bc3565b60405180910390fd5b805181602001fd5b63150b7a0260e01b7bffffffffffffffffffffffffffffffffffffffffffffffffffffffff1916817bffffffffffffffffffffffffffffffffffffffffffffffffffffffff1916149150506123c2565b600190505b949350505050565b600073ffffffffffffffffffffffffffffffffffffffff168273ffffffffffffffffffffffffffffffffffffffff16141561243a576040517f08c379a000000000000000000000000000000000000000000000000000000000815260040161243190613dec565b60405180910390fd5b612443816119fd565b15612483576040517f08c379a000000000000000000000000000000000000000000000000000000000815260040161247a90613e58565b60405180910390fd5b61248f600083836121ce565b6001600360008473ffffffffffffffffffffffffffffffffffffffff1673ffffffffffffffffffffffffffffffffffffffff16815260200190815260200160002060008282546124df9190613755565b92505081905550816002600083815260200190815260200160002060006101000a81548173ffffffffffffffffffffffffffffffffffffffff021916908373ffffffffffffffffffffffffffffffffffffffff160217905550808273ffffffffffffffffffffffffffffffffffffffff16600073ffffffffffffffffffffffffffffffffffffffff167fddf252ad1be2c89b69c2b068fc378daa952ba7f163c4a11628f55a4df523b3ef60405160405180910390a46125a0600083836121d3565b5050565b6000808273ffffffffffffffffffffffffffffffffffffffff163b119050919050565b60405180610100016040528060608152602001600073ffffffffffffffffffffffffffffffffffffffff1681526020016000815260200160008152602001600081526020016000815260200160008152602001600081525090565b82805461262e90613325565b90600052602060002090601f0160209004810192826126505760008555612697565b82601f1061266957805160ff1916838001178555612697565b82800160010185558215612697579182015b8281111561269657825182559160200191906001019061267b565b5b5090506126a491906126a8565b5090565b5b808211156126c15760008160009055506001016126a9565b5090565b6000604051905090565b600080fd5b600080fd5b60007fffffffff0000000000000000000000000000000000000000000000000000000082169050919050565b61270e816126d9565b811461271957600080fd5b50565b60008135905061272b81612705565b92915050565b600060208284031215612747576127466126cf565b5b60006127558482850161271c565b91505092915050565b60008115159050919050565b6127738161275e565b82525050565b600060208201905061278e600083018461276a565b92915050565b600081519050919050565b600082825260208201905092915050565b60005b838110156127ce5780820151818401526020810190506127b3565b838111156127dd576000848401525b50505050565b6000601f19601f8301169050919050565b60006127ff82612794565b612809818561279f565b93506128198185602086016127b0565b612822816127e3565b840191505092915050565b6000602082019050818103600083015261284781846127f4565b905092915050565b6000819050919050565b6128628161284f565b811461286d57600080fd5b50565b60008135905061287f81612859565b92915050565b60006020828403121561289b5761289a6126cf565b5b60006128a984828501612870565b91505092915050565b600073ffffffffffffffffffffffffffffffffffffffff82169050919050565b60006128dd826128b2565b9050919050565b6128ed816128d2565b82525050565b600060208201905061290860008301846128e4565b92915050565b612917816128d2565b811461292257600080fd5b50565b6000813590506129348161290e565b92915050565b60008060408385031215612951576129506126cf565b5b600061295f85828601612925565b925050602061297085828601612870565b9150509250929050565b6129838161284f565b82525050565b600060208201905061299e600083018461297a565b92915050565b6000806000606084860312156129bd576129bc6126cf565b5b60006129cb86828701612925565b93505060206129dc86828701612925565b92505060406129ed86828701612870565b9150509250925092565b6000819050919050565b612a0a816129f7565b82525050565b6000610100820190508181036000830152612a2b818b6127f4565b9050612a3a602083018a6128e4565b612a476040830189612a01565b612a546060830188612a01565b612a616080830187612a01565b612a6e60a083018661297a565b612a7b60c083018561297a565b612a8860e083018461297a565b9998505050505050505050565b6000604082019050612aaa60008301856128e4565b8181036020830152612abc81846127f4565b90509392505050565b600060208284031215612adb57612ada6126cf565b5b6000612ae984828501612925565b91505092915050565b600082825260208201905092915050565b6000612b0e82612794565b612b188185612af2565b9350612b288185602086016127b0565b612b31816127e3565b840191505092915050565b612b45816128d2565b82525050565b612b54816129f7565b82525050565b612b638161284f565b82525050565b6000610100830160008301518482036000860152612b878282612b03565b9150506020830151612b9c6020860182612b3c565b506040830151612baf6040860182612b4b565b506060830151612bc26060860182612b4b565b506080830151612bd56080860182612b4b565b5060a0830151612be860a0860182612b5a565b5060c0830151612bfb60c0860182612b5a565b5060e0830151612c0e60e0860182612b5a565b508091505092915050565b60006020820190508181036000830152612c338184612b69565b905092915050565b600081519050919050565b600082825260208201905092915050565b6000819050602082019050919050565b6000604083016000830151612c7f6000860182612b3c565b5060208301518482036020860152612c978282612b03565b9150508091505092915050565b6000612cb08383612c67565b905092915050565b6000602082019050919050565b6000612cd082612c3b565b612cda8185612c46565b935083602082028501612cec85612c57565b8060005b85811015612d285784840389528151612d098582612ca4565b9450612d1483612cb8565b925060208a01995050600181019050612cf0565b50829750879550505050505092915050565b60006020820190508181036000830152612d548184612cc5565b905092915050565b612d658161275e565b8114612d7057600080fd5b50565b600081359050612d8281612d5c565b92915050565b60008060408385031215612d9f57612d9e6126cf565b5b6000612dad85828601612925565b9250506020612dbe85828601612d73565b9150509250929050565b600080fd5b600080fd5b7f4e487b7100000000000000000000000000000000000000000000000000000000600052604160045260246000fd5b612e0a826127e3565b810181811067ffffffffffffffff82111715612e2957612e28612dd2565b5b80604052505050565b6000612e3c6126c5565b9050612e488282612e01565b919050565b600067ffffffffffffffff821115612e6857612e67612dd2565b5b612e71826127e3565b9050602081019050919050565b82818337600083830152505050565b6000612ea0612e9b84612e4d565b612e32565b905082815260208101848484011115612ebc57612ebb612dcd565b5b612ec7848285612e7e565b509392505050565b600082601f830112612ee457612ee3612dc8565b5b8135612ef4848260208601612e8d565b91505092915050565b60008060008060808587031215612f1757612f166126cf565b5b6000612f2587828801612925565b9450506020612f3687828801612925565b9350506040612f4787828801612870565b925050606085013567ffffffffffffffff811115612f6857612f676126d4565b5b612f7487828801612ecf565b91505092959194509250565b600081519050919050565b600082825260208201905092915050565b6000819050602082019050919050565b6000610100830160008301518482036000860152612fca8282612b03565b9150506020830151612fdf6020860182612b3c565b506040830151612ff26040860182612b4b565b5060608301516130056060860182612b4b565b5060808301516130186080860182612b4b565b5060a083015161302b60a0860182612b5a565b5060c083015161303e60c0860182612b5a565b5060e083015161305160e0860182612b5a565b508091505092915050565b60006130688383612fac565b905092915050565b6000602082019050919050565b600061308882612f80565b6130928185612f8b565b9350836020820285016130a485612f9c565b8060005b858110156130e057848403895281516130c1858261305c565b94506130cc83613070565b925060208a019950506001810190506130a8565b50829750879550505050505092915050565b6000602082019050818103600083015261310c818461307d565b905092915050565b6000806040838503121561312b5761312a6126cf565b5b600061313985828601612925565b925050602061314a85828601612925565b9150509250929050565b600067ffffffffffffffff82111561316f5761316e612dd2565b5b613178826127e3565b9050602081019050919050565b600061319861319384613154565b612e32565b9050828152602081018484840111156131b4576131b3612dcd565b5b6131bf848285612e7e565b509392505050565b600082601f8301126131dc576131db612dc8565b5b81356131ec848260208601613185565b91505092915050565b600080fd5b600080fd5b600060408284031215613215576132146131f5565b5b61321f6040612e32565b9050600061322f84828501612925565b600083015250602082013567ffffffffffffffff811115613253576132526131fa565b5b61325f848285016131c7565b60208301525092915050565b600080600060608486031215613284576132836126cf565b5b600061329286828701612925565b935050602084013567ffffffffffffffff8111156132b3576132b26126d4565b5b6132bf868287016131c7565b925050604084013567ffffffffffffffff8111156132e0576132df6126d4565b5b6132ec868287016131ff565b9150509250925092565b7f4e487b7100000000000000000000000000000000000000000000000000000000600052602260045260246000fd5b6000600282049050600182168061333d57607f821691505b60208210811415613351576133506132f6565b5b50919050565b7f4552433732313a20617070726f76656420717565727920666f72206e6f6e657860008201527f697374656e7420746f6b656e0000000000000000000000000000000000000000602082015250565b60006133b3602c8361279f565b91506133be82613357565b604082019050919050565b600060208201905081810360008301526133e2816133a6565b9050919050565b7f4552433732313a20617070726f76616c20746f2063757272656e74206f776e6560008201527f7200000000000000000000000000000000000000000000000000000000000000602082015250565b600061344560218361279f565b9150613450826133e9565b604082019050919050565b6000602082019050818103600083015261347481613438565b9050919050565b7f4552433732313a20617070726f76652063616c6c6572206973206e6f74206f7760008201527f6e6572206e6f7220617070726f76656420666f7220616c6c0000000000000000602082015250565b60006134d760388361279f565b91506134e28261347b565b604082019050919050565b60006020820190508181036000830152613506816134ca565b9050919050565b7f4552433732313a207472616e736665722063616c6c6572206973206e6f74206f60008201527f776e6572206e6f7220617070726f766564000000000000000000000000000000602082015250565b600061356960318361279f565b91506135748261350d565b604082019050919050565b600060208201905081810360008301526135988161355c565b9050919050565b7f4e487b7100000000000000000000000000000000000000000000000000000000600052601160045260246000fd5b60006135d98261284f565b91506135e48361284f565b9250828210156135f7576135f661359f565b5b828203905092915050565b7f4e487b7100000000000000000000000000000000000000000000000000000000600052603260045260246000fd5b7f4552433732313a206f776e657220717565727920666f72206e6f6e657869737460008201527f656e7420746f6b656e0000000000000000000000000000000000000000000000602082015250565b600061368d60298361279f565b915061369882613631565b604082019050919050565b600060208201905081810360008301526136bc81613680565b9050919050565b7f4552433732313a2062616c616e636520717565727920666f7220746865207a6560008201527f726f206164647265737300000000000000000000000000000000000000000000602082015250565b600061371f602a8361279f565b915061372a826136c3565b604082019050919050565b6000602082019050818103600083015261374e81613712565b9050919050565b60006137608261284f565b915061376b8361284f565b9250827fffffffffffffffffffffffffffffffffffffffffffffffffffffffffffffffff038211156137a05761379f61359f565b5b828201905092915050565b7f4552433732314d657461646174613a2055524920717565727920666f72206e6f60008201527f6e6578697374656e7420746f6b656e0000000000000000000000000000000000602082015250565b6000613807602f8361279f565b9150613812826137ab565b604082019050919050565b60006020820190508181036000830152613836816137fa565b9050919050565b600081905092915050565b600061385382612794565b61385d818561383d565b935061386d8185602086016127b0565b80840191505092915050565b60006138858285613848565b91506138918284613848565b91508190509392505050565b7f54686973206275696c64696e67206973206e6f7420796574206f70656e20746f60008201527f206d656d62657273000000000000000000000000000000000000000000000000602082015250565b60006138f960288361279f565b91506139048261389d565b604082019050919050565b60006020820190508181036000830152613928816138ec565b9050919050565b7f4552433732313a206f70657261746f7220717565727920666f72206e6f6e657860008201527f697374656e7420746f6b656e0000000000000000000000000000000000000000602082015250565b600061398b602c8361279f565b91506139968261392f565b604082019050919050565b600060208201905081810360008301526139ba8161397e565b9050919050565b7f4552433732313a207472616e736665722066726f6d20696e636f72726563742060008201527f6f776e6572000000000000000000000000000000000000000000000000000000602082015250565b6000613a1d60258361279f565b9150613a28826139c1565b604082019050919050565b60006020820190508181036000830152613a4c81613a10565b9050919050565b7f4552433732313a207472616e7366657220746f20746865207a65726f2061646460008201527f7265737300000000000000000000000000000000000000000000000000000000602082015250565b6000613aaf60248361279f565b9150613aba82613a53565b604082019050919050565b60006020820190508181036000830152613ade81613aa2565b9050919050565b7f4552433732313a20617070726f766520746f2063616c6c657200000000000000600082015250565b6000613b1b60198361279f565b9150613b2682613ae5565b602082019050919050565b60006020820190508181036000830152613b4a81613b0e565b9050919050565b7f4552433732313a207472616e7366657220746f206e6f6e20455243373231526560008201527f63656976657220696d706c656d656e7465720000000000000000000000000000602082015250565b6000613bad60328361279f565b9150613bb882613b51565b604082019050919050565b60006020820190508181036000830152613bdc81613ba0565b9050919050565b6000613bee8261284f565b91507fffffffffffffffffffffffffffffffffffffffffffffffffffffffffffffffff821415613c2157613c2061359f565b5b600182019050919050565b7f4e487b7100000000000000000000000000000000000000000000000000000000600052601260045260246000fd5b6000613c668261284f565b9150613c718361284f565b925082613c8157613c80613c2c565b5b828204905092915050565b6000613c978261284f565b9150613ca28361284f565b925082613cb257613cb1613c2c565b5b828206905092915050565b600081519050919050565b600082825260208201905092915050565b6000613ce482613cbd565b613cee8185613cc8565b9350613cfe8185602086016127b0565b613d07816127e3565b840191505092915050565b6000608082019050613d2760008301876128e4565b613d3460208301866128e4565b613d41604083018561297a565b8181036060830152613d538184613cd9565b905095945050505050565b600081519050613d6d81612705565b92915050565b600060208284031215613d8957613d886126cf565b5b6000613d9784828501613d5e565b91505092915050565b7f4552433732313a206d696e7420746f20746865207a65726f2061646472657373600082015250565b6000613dd660208361279f565b9150613de182613da0565b602082019050919050565b60006020820190508181036000830152613e0581613dc9565b9050919050565b7f4552433732313a20746f6b656e20616c7265616479206d696e74656400000000600082015250565b6000613e42601c8361279f565b9150613e4d82613e0c565b602082019050919050565b60006020820190508181036000830152613e7181613e35565b905091905056fea26469706673582212205894619806a2a14b58a893b2ac501a094ca60009a8ce7d0085a0786d3fcf994564736f6c63430008090033",
  "immutableReferences": {},
  "source": "// SPDX-License-Identifier: MIT\npragma solidity ^0.8.0;\n\nimport \"@openzeppelin/contracts/token/ERC721/ERC721.sol\";\n\ncontract Land is ERC721 {\n    uint256 public cost = 1 ether;\n    uint256 public maxSupply = 5;\n    uint256 public totalSupply = 0;\n    uint256 public memberCost = 1 ether;\n\n    struct Building {\n        string name;\n        address owner;\n        int256 posX;\n        int256 posY;\n        int256 posZ;\n        uint256 sizeX;\n        uint256 sizeY;\n        uint256 sizeZ;\n    \n    }\n\n    struct Member {\n        address pubkey;\n        string name;\n    }\n\n    Building[] public buildings;\n    Member[] public members;\n\n    constructor(\n        string memory _name,\n        string memory _symbol,\n        uint256 _cost,\n        uint256 _memberCost\n    ) ERC721(_name, _symbol) {\n        cost = _cost;\n        memberCost = _memberCost;\n\n        buildings.push(\n            Building(\"Sports Complex\", address(0x0), 0, 0, 0, 10, 10, 10)\n        );\n        buildings.push(Building(\"Stadium\", address(0x0), 0, 10, 0, 10, 5, 3)\n        );\n        buildings.push(\n            Building(\"University\", address(0x0), 0, -10, 0, 10, 5, 3)\n        );\n        buildings.push(\n            Building(\"Tech Hub\", address(0x0), 10, 0, 0, 5, 25, 5)\n        );\n        buildings.push(\n            Building(\"Shopping Plaza\", address(0x0), -10, 0, 0, 5, 25, 5)\n        );\n    }\n\n    function mint(uint256 _id) public payable {\n        uint256 supply = totalSupply;\n        require(supply <= maxSupply);\n        require(buildings[_id - 1].owner == address(0x0));\n        require(msg.value >= cost);\n\n        // NOTE: tokenID always starts from 1, but our array starts from 0\n        buildings[_id - 1].owner = msg.sender;\n        totalSupply = totalSupply + 1;\n\n        _safeMint(msg.sender, _id);\n    }\n\n    function memberMint(uint256 _id) public payable {\n        require(buildings[_id - 1].owner != address(0x0));\n        require(msg.value >= memberCost);\n        \n        _safeMint(msg.sender, _id);\n    }\n\n    function transferFrom(\n        address from,\n        address to,\n        uint256 tokenId\n    ) public override {\n        require(\n            _isApprovedOrOwner(_msgSender(), tokenId),\n            \"ERC721: transfer caller is not owner nor approved\"\n        );\n\n        // Update Building ownership\n        buildings[tokenId - 1].owner = to;\n\n        _transfer(from, to, tokenId);\n    }\n\n    function safeTransferFrom(\n        address from,\n        address to,\n        uint256 tokenId,\n        bytes memory _data\n    ) public override {\n        require(\n            _isApprovedOrOwner(_msgSender(), tokenId),\n            \"ERC721: transfer caller is not owner nor approved\"\n        );\n\n        // Update Building ownership\n        buildings[tokenId - 1].owner = to;\n\n        _safeTransfer(from, to, tokenId, _data);\n    }\n\n    // Public View Functions\n    function getBuildings() public view returns (Building[] memory) {\n        return buildings;\n    }\n\n    function getBuilding(uint256 _id) public view returns (Building memory) {\n        return buildings[_id - 1];\n    }\n\n    function getOwnedBuildings(uint256 _id) public view returns (Building memory) {\n        require(buildings[_id - 1].owner != address(0x0), \"This building is not yet open to members\");\n        return buildings[_id - 1];             \n    }\n    \n    function addMemberToBuilding(address pubkey, string memory name, Member memory) public payable {\n        Member memory newMember = Member(pubkey, name);\n        members.push(newMember);\n    }\n\n    function getMembers() public view returns (Member[] memory) {\n        return members;\n    }\n    }",
  "sourcePath": "/home/rahni/metaverse1/src/contracts/Land.sol",
  "compiler": {
    "name": "solc",
    "version": "0.8.9+commit.e5eed63a.Emscripten.clang"
  },
  "schemaVersion": "3.4.3",
  "updatedAt": "2022-05-02T08:45:38.597Z",
  "networkType": "ethereum",
  "devdoc": {
    "kind": "dev",
    "methods": {
      "approve(address,uint256)": {
        "details": "See {IERC721-approve}."
      },
      "balanceOf(address)": {
        "details": "See {IERC721-balanceOf}."
      },
      "getApproved(uint256)": {
        "details": "See {IERC721-getApproved}."
      },
      "isApprovedForAll(address,address)": {
        "details": "See {IERC721-isApprovedForAll}."
      },
      "name()": {
        "details": "See {IERC721Metadata-name}."
      },
      "ownerOf(uint256)": {
        "details": "See {IERC721-ownerOf}."
      },
      "safeTransferFrom(address,address,uint256)": {
        "details": "See {IERC721-safeTransferFrom}."
      },
      "safeTransferFrom(address,address,uint256,bytes)": {
        "details": "See {IERC721-safeTransferFrom}."
      },
      "setApprovalForAll(address,bool)": {
        "details": "See {IERC721-setApprovalForAll}."
      },
      "supportsInterface(bytes4)": {
        "details": "See {IERC165-supportsInterface}."
      },
      "symbol()": {
        "details": "See {IERC721Metadata-symbol}."
      },
      "tokenURI(uint256)": {
        "details": "See {IERC721Metadata-tokenURI}."
      },
      "transferFrom(address,address,uint256)": {
        "details": "See {IERC721-transferFrom}."
      }
    },
    "version": 1
  },
  "userdoc": {
    "kind": "user",
    "methods": {},
    "version": 1
  }
}