{
  "contractName": "Property",
  "abi": [
    {
      "inputs": [
        {
          "internalType": "string",
          "name": "_name",
          "type": "string"
        },
        {
          "internalType": "string",
          "name": "_symbol",
          "type": "string"
        },
        {
          "internalType": "uint256",
          "name": "_cost",
          "type": "uint256"
        }
      ],
      "stateMutability": "nonpayable",
      "type": "constructor"
    },
    {
      "anonymous": false,
      "inputs": [
        {
          "indexed": true,
          "internalType": "address",
          "name": "owner",
          "type": "address"
        },
        {
          "indexed": true,
          "internalType": "address",
          "name": "approved",
          "type": "address"
        },
        {
          "indexed": true,
          "internalType": "uint256",
          "name": "tokenId",
          "type": "uint256"
        }
      ],
      "name": "Approval",
      "type": "event"
    },
    {
      "anonymous": false,
      "inputs": [
        {
          "indexed": true,
          "internalType": "address",
          "name": "owner",
          "type": "address"
        },
        {
          "indexed": true,
          "internalType": "address",
          "name": "operator",
          "type": "address"
        },
        {
          "indexed": false,
          "internalType": "bool",
          "name": "approved",
          "type": "bool"
        }
      ],
      "name": "ApprovalForAll",
      "type": "event"
    },
    {
      "anonymous": false,
      "inputs": [
        {
          "indexed": true,
          "internalType": "address",
          "name": "from",
          "type": "address"
        },
        {
          "indexed": true,
          "internalType": "address",
          "name": "to",
          "type": "address"
        },
        {
          "indexed": true,
          "internalType": "uint256",
          "name": "tokenId",
          "type": "uint256"
        }
      ],
      "name": "Transfer",
      "type": "event"
    },
    {
      "inputs": [
        {
          "internalType": "address",
          "name": "to",
          "type": "address"
        },
        {
          "internalType": "uint256",
          "name": "tokenId",
          "type": "uint256"
        }
      ],
      "name": "approve",
      "outputs": [],
      "stateMutability": "nonpayable",
      "type": "function"
    },
    {
      "inputs": [
        {
          "internalType": "address",
          "name": "owner",
          "type": "address"
        }
      ],
      "name": "balanceOf",
      "outputs": [
        {
          "internalType": "uint256",
          "name": "",
          "type": "uint256"
        }
      ],
      "stateMutability": "view",
      "type": "function",
      "constant": true
    },
    {
      "inputs": [
        {
          "internalType": "uint256",
          "name": "",
          "type": "uint256"
        }
      ],
      "name": "buildings",
      "outputs": [
        {
          "internalType": "string",
          "name": "name",
          "type": "string"
        },
        {
          "internalType": "address",
          "name": "owner",
          "type": "address"
        },
        {
          "internalType": "string",
          "name": "streetName",
          "type": "string"
        },
        {
          "internalType": "string",
          "name": "postcode",
          "type": "string"
        }
      ],
      "stateMutability": "view",
      "type": "function",
      "constant": true
    },
    {
      "inputs": [],
      "name": "cost",
      "outputs": [
        {
          "internalType": "uint256",
          "name": "",
          "type": "uint256"
        }
      ],
      "stateMutability": "view",
      "type": "function",
      "constant": true
    },
    {
      "inputs": [
        {
          "internalType": "uint256",
          "name": "tokenId",
          "type": "uint256"
        }
      ],
      "name": "getApproved",
      "outputs": [
        {
          "internalType": "address",
          "name": "",
          "type": "address"
        }
      ],
      "stateMutability": "view",
      "type": "function",
      "constant": true
    },
    {
      "inputs": [
        {
          "internalType": "address",
          "name": "owner",
          "type": "address"
        },
        {
          "internalType": "address",
          "name": "operator",
          "type": "address"
        }
      ],
      "name": "isApprovedForAll",
      "outputs": [
        {
          "internalType": "bool",
          "name": "",
          "type": "bool"
        }
      ],
      "stateMutability": "view",
      "type": "function",
      "constant": true
    },
    {
      "inputs": [],
      "name": "maxSupply",
      "outputs": [
        {
          "internalType": "uint256",
          "name": "",
          "type": "uint256"
        }
      ],
      "stateMutability": "view",
      "type": "function",
      "constant": true
    },
    {
      "inputs": [],
      "name": "name",
      "outputs": [
        {
          "internalType": "string",
          "name": "",
          "type": "string"
        }
      ],
      "stateMutability": "view",
      "type": "function",
      "constant": true
    },
    {
      "inputs": [
        {
          "internalType": "uint256",
          "name": "tokenId",
          "type": "uint256"
        }
      ],
      "name": "ownerOf",
      "outputs": [
        {
          "internalType": "address",
          "name": "",
          "type": "address"
        }
      ],
      "stateMutability": "view",
      "type": "function",
      "constant": true
    },
    {
      "inputs": [
        {
          "internalType": "address",
          "name": "from",
          "type": "address"
        },
        {
          "internalType": "address",
          "name": "to",
          "type": "address"
        },
        {
          "internalType": "uint256",
          "name": "tokenId",
          "type": "uint256"
        }
      ],
      "name": "safeTransferFrom",
      "outputs": [],
      "stateMutability": "nonpayable",
      "type": "function"
    },
    {
      "inputs": [
        {
          "internalType": "address",
          "name": "from",
          "type": "address"
        },
        {
          "internalType": "address",
          "name": "to",
          "type": "address"
        },
        {
          "internalType": "uint256",
          "name": "tokenId",
          "type": "uint256"
        },
        {
          "internalType": "bytes",
          "name": "_data",
          "type": "bytes"
        }
      ],
      "name": "safeTransferFrom",
      "outputs": [],
      "stateMutability": "nonpayable",
      "type": "function"
    },
    {
      "inputs": [
        {
          "internalType": "address",
          "name": "operator",
          "type": "address"
        },
        {
          "internalType": "bool",
          "name": "approved",
          "type": "bool"
        }
      ],
      "name": "setApprovalForAll",
      "outputs": [],
      "stateMutability": "nonpayable",
      "type": "function"
    },
    {
      "inputs": [
        {
          "internalType": "bytes4",
          "name": "interfaceId",
          "type": "bytes4"
        }
      ],
      "name": "supportsInterface",
      "outputs": [
        {
          "internalType": "bool",
          "name": "",
          "type": "bool"
        }
      ],
      "stateMutability": "view",
      "type": "function",
      "constant": true
    },
    {
      "inputs": [],
      "name": "symbol",
      "outputs": [
        {
          "internalType": "string",
          "name": "",
          "type": "string"
        }
      ],
      "stateMutability": "view",
      "type": "function",
      "constant": true
    },
    {
      "inputs": [
        {
          "internalType": "uint256",
          "name": "tokenId",
          "type": "uint256"
        }
      ],
      "name": "tokenURI",
      "outputs": [
        {
          "internalType": "string",
          "name": "",
          "type": "string"
        }
      ],
      "stateMutability": "view",
      "type": "function",
      "constant": true
    },
    {
      "inputs": [],
      "name": "totalSupply",
      "outputs": [
        {
          "internalType": "uint256",
          "name": "",
          "type": "uint256"
        }
      ],
      "stateMutability": "view",
      "type": "function",
      "constant": true
    },
    {
      "inputs": [
        {
          "internalType": "address",
          "name": "from",
          "type": "address"
        },
        {
          "internalType": "address",
          "name": "to",
          "type": "address"
        },
        {
          "internalType": "uint256",
          "name": "tokenId",
          "type": "uint256"
        }
      ],
      "name": "transferFrom",
      "outputs": [],
      "stateMutability": "nonpayable",
      "type": "function"
    },
    {
      "inputs": [
        {
          "internalType": "uint256",
          "name": "_id",
          "type": "uint256"
        }
      ],
      "name": "mint",
      "outputs": [],
      "stateMutability": "payable",
      "type": "function",
      "payable": true
    },
    {
      "inputs": [],
      "name": "getBuildings",
      "outputs": [
        {
          "components": [
            {
              "internalType": "string",
              "name": "name",
              "type": "string"
            },
            {
              "internalType": "address",
              "name": "owner",
              "type": "address"
            },
            {
              "internalType": "string",
              "name": "streetName",
              "type": "string"
            },
            {
              "internalType": "string",
              "name": "postcode",
              "type": "string"
            }
          ],
          "internalType": "struct Property.Building[]",
          "name": "",
          "type": "tuple[]"
        }
      ],
      "stateMutability": "view",
      "type": "function",
      "constant": true
    },
    {
      "inputs": [
        {
          "internalType": "uint256",
          "name": "_id",
          "type": "uint256"
        }
      ],
      "name": "getBuilding",
      "outputs": [
        {
          "components": [
            {
              "internalType": "string",
              "name": "name",
              "type": "string"
            },
            {
              "internalType": "address",
              "name": "owner",
              "type": "address"
            },
            {
              "internalType": "string",
              "name": "streetName",
              "type": "string"
            },
            {
              "internalType": "string",
              "name": "postcode",
              "type": "string"
            }
          ],
          "internalType": "struct Property.Building",
          "name": "",
          "type": "tuple"
        }
      ],
      "stateMutability": "view",
      "type": "function",
      "constant": true
    }
  ],
  "bytecode": "0x6080604052674563918244f40000600655600360075560006008553480156200002757600080fd5b5060405162003d5d38038062003d5d83398181016040528101906200004d919062000813565b82828160009080519060200190620000679291906200058b565b508060019080519060200190620000809291906200058b565b50505080600681905550600960405180608001604052806040518060400160405280600e81526020017f526f736564616c6520486f7573650000000000000000000000000000000000008152508152602001600073ffffffffffffffffffffffffffffffffffffffff1681526020016040518060400160405280600a81526020017f456c6d205374726565740000000000000000000000000000000000000000000081525081526020016040518060400160405280600781526020017f453331203050420000000000000000000000000000000000000000000000000081525081525090806001815401808255809150506001900390600052602060002090600402016000909190919091506000820151816000019080519060200190620001aa9291906200058b565b5060208201518160010160006101000a81548173ffffffffffffffffffffffffffffffffffffffff021916908373ffffffffffffffffffffffffffffffffffffffff1602179055506040820151816002019080519060200190620002109291906200058b565b5060608201518160030190805190602001906200022f9291906200058b565b505050600960405180608001604052806040518060400160405280600781526020017f4f616b76696577000000000000000000000000000000000000000000000000008152508152602001600073ffffffffffffffffffffffffffffffffffffffff1681526020016040518060400160405280600f81526020017f456c6465726265727279204c616e65000000000000000000000000000000000081525081526020016040518060400160405280600781526020017f5743322031464c0000000000000000000000000000000000000000000000000081525081525090806001815401808255809150506001900390600052602060002090600402016000909190919091506000820151816000019080519060200190620003529291906200058b565b5060208201518160010160006101000a81548173ffffffffffffffffffffffffffffffffffffffff021916908373ffffffffffffffffffffffffffffffffffffffff1602179055506040820151816002019080519060200190620003b89291906200058b565b506060820151816003019080519060200190620003d79291906200058b565b505050600960405180608001604052806040518060400160405280600c81526020017f436f786573204d6561646f7700000000000000000000000000000000000000008152508152602001600073ffffffffffffffffffffffffffffffffffffffff1681526020016040518060400160405280600c81526020017f517565656e20537472656574000000000000000000000000000000000000000081525081526020016040518060400160405280600781526020017f574237203353450000000000000000000000000000000000000000000000000081525081525090806001815401808255809150506001900390600052602060002090600402016000909190919091506000820151816000019080519060200190620004fa9291906200058b565b5060208201518160010160006101000a81548173ffffffffffffffffffffffffffffffffffffffff021916908373ffffffffffffffffffffffffffffffffffffffff1602179055506040820151816002019080519060200190620005609291906200058b565b5060608201518160030190805190602001906200057f9291906200058b565b50505050505062000912565b8280546200059990620008dc565b90600052602060002090601f016020900481019282620005bd576000855562000609565b82601f10620005d857805160ff191683800117855562000609565b8280016001018555821562000609579182015b8281111562000608578251825591602001919060010190620005eb565b5b5090506200061891906200061c565b5090565b5b80821115620006375760008160009055506001016200061d565b5090565b6000604051905090565b600080fd5b600080fd5b600080fd5b600080fd5b6000601f19601f8301169050919050565b7f4e487b7100000000000000000000000000000000000000000000000000000000600052604160045260246000fd5b620006a48262000659565b810181811067ffffffffffffffff82111715620006c657620006c56200066a565b5b80604052505050565b6000620006db6200063b565b9050620006e9828262000699565b919050565b600067ffffffffffffffff8211156200070c576200070b6200066a565b5b620007178262000659565b9050602081019050919050565b60005b838110156200074457808201518184015260208101905062000727565b8381111562000754576000848401525b50505050565b6000620007716200076b84620006ee565b620006cf565b90508281526020810184848401111562000790576200078f62000654565b5b6200079d84828562000724565b509392505050565b600082601f830112620007bd57620007bc6200064f565b5b8151620007cf8482602086016200075a565b91505092915050565b6000819050919050565b620007ed81620007d8565b8114620007f957600080fd5b50565b6000815190506200080d81620007e2565b92915050565b6000806000606084860312156200082f576200082e62000645565b5b600084015167ffffffffffffffff81111562000850576200084f6200064a565b5b6200085e86828701620007a5565b935050602084015167ffffffffffffffff8111156200088257620008816200064a565b5b6200089086828701620007a5565b9250506040620008a386828701620007fc565b9150509250925092565b7f4e487b7100000000000000000000000000000000000000000000000000000000600052602260045260246000fd5b60006002820490506001821680620008f557607f821691505b602082108114156200090c576200090b620008ad565b5b50919050565b61343b80620009226000396000f3fe60806040526004361061011f5760003560e01c806370a08231116100a0578063b88d4fde11610064578063b88d4fde14610401578063c87b56dd1461042a578063d5abeb0114610467578063d9cf6a2614610492578063e985e9c5146104bd5761011f565b806370a082311461031757806395d89b41146103545780639dfd8b021461037f578063a0712d68146103bc578063a22cb465146103d85761011f565b806318160ddd116100e757806318160ddd1461021d57806323b872dd1461024857806342842e0e146102715780634c96a0621461029a5780636352211e146102da5761011f565b806301ffc9a71461012457806306fdde0314610161578063081812fc1461018c578063095ea7b3146101c957806313faede6146101f2575b600080fd5b34801561013057600080fd5b5061014b60048036038101906101469190612123565b6104fa565b604051610158919061216b565b60405180910390f35b34801561016d57600080fd5b506101766105dc565b604051610183919061221f565b60405180910390f35b34801561019857600080fd5b506101b360048036038101906101ae9190612277565b61066e565b6040516101c091906122e5565b60405180910390f35b3480156101d557600080fd5b506101f060048036038101906101eb919061232c565b6106f3565b005b3480156101fe57600080fd5b5061020761080b565b604051610214919061237b565b60405180910390f35b34801561022957600080fd5b50610232610811565b60405161023f919061237b565b60405180910390f35b34801561025457600080fd5b5061026f600480360381019061026a9190612396565b610817565b005b34801561027d57600080fd5b5061029860048036038101906102939190612396565b610877565b005b3480156102a657600080fd5b506102c160048036038101906102bc9190612277565b610897565b6040516102d194939291906123e9565b60405180910390f35b3480156102e657600080fd5b5061030160048036038101906102fc9190612277565b610a8f565b60405161030e91906122e5565b60405180910390f35b34801561032357600080fd5b5061033e60048036038101906103399190612443565b610b41565b60405161034b919061237b565b60405180910390f35b34801561036057600080fd5b50610369610bf9565b604051610376919061221f565b60405180910390f35b34801561038b57600080fd5b506103a660048036038101906103a19190612277565b610c8b565b6040516103b3919061253a565b60405180910390f35b6103d660048036038101906103d19190612277565b610edf565b005b3480156103e457600080fd5b506103ff60048036038101906103fa9190612588565b611021565b005b34801561040d57600080fd5b50610428600480360381019061042391906126fd565b611037565b005b34801561043657600080fd5b50610451600480360381019061044c9190612277565b611099565b60405161045e919061221f565b60405180910390f35b34801561047357600080fd5b5061047c611140565b604051610489919061237b565b60405180910390f35b34801561049e57600080fd5b506104a7611146565b6040516104b491906128b3565b60405180910390f35b3480156104c957600080fd5b506104e460048036038101906104df91906128d5565b6113b1565b6040516104f1919061216b565b60405180910390f35b60007f80ac58cd000000000000000000000000000000000000000000000000000000007bffffffffffffffffffffffffffffffffffffffffffffffffffffffff1916827bffffffffffffffffffffffffffffffffffffffffffffffffffffffff191614806105c557507f5b5e139f000000000000000000000000000000000000000000000000000000007bffffffffffffffffffffffffffffffffffffffffffffffffffffffff1916827bffffffffffffffffffffffffffffffffffffffffffffffffffffffff1916145b806105d557506105d482611445565b5b9050919050565b6060600080546105eb90612944565b80601f016020809104026020016040519081016040528092919081815260200182805461061790612944565b80156106645780601f1061063957610100808354040283529160200191610664565b820191906000526020600020905b81548152906001019060200180831161064757829003601f168201915b5050505050905090565b6000610679826114af565b6106b8576040517f08c379a00000000000000000000000000000000000000000000000000000000081526004016106af906129e8565b60405180910390fd5b6004600083815260200190815260200160002060009054906101000a900473ffffffffffffffffffffffffffffffffffffffff169050919050565b60006106fe82610a8f565b90508073ffffffffffffffffffffffffffffffffffffffff168373ffffffffffffffffffffffffffffffffffffffff16141561076f576040517f08c379a000000000000000000000000000000000000000000000000000000000815260040161076690612a7a565b60405180910390fd5b8073ffffffffffffffffffffffffffffffffffffffff1661078e61151b565b73ffffffffffffffffffffffffffffffffffffffff1614806107bd57506107bc816107b761151b565b6113b1565b5b6107fc576040517f08c379a00000000000000000000000000000000000000000000000000000000081526004016107f390612b0c565b60405180910390fd5b6108068383611523565b505050565b60065481565b60085481565b61082861082261151b565b826115dc565b610867576040517f08c379a000000000000000000000000000000000000000000000000000000000815260040161085e90612b9e565b60405180910390fd5b6108728383836116ba565b505050565b61089283838360405180602001604052806000815250611037565b505050565b600981815481106108a757600080fd5b90600052602060002090600402016000915090508060000180546108ca90612944565b80601f01602080910402602001604051908101604052809291908181526020018280546108f690612944565b80156109435780601f1061091857610100808354040283529160200191610943565b820191906000526020600020905b81548152906001019060200180831161092657829003601f168201915b5050505050908060010160009054906101000a900473ffffffffffffffffffffffffffffffffffffffff169080600201805461097e90612944565b80601f01602080910402602001604051908101604052809291908181526020018280546109aa90612944565b80156109f75780601f106109cc576101008083540402835291602001916109f7565b820191906000526020600020905b8154815290600101906020018083116109da57829003601f168201915b505050505090806003018054610a0c90612944565b80601f0160208091040260200160405190810160405280929190818152602001828054610a3890612944565b8015610a855780601f10610a5a57610100808354040283529160200191610a85565b820191906000526020600020905b815481529060010190602001808311610a6857829003601f168201915b5050505050905084565b6000806002600084815260200190815260200160002060009054906101000a900473ffffffffffffffffffffffffffffffffffffffff169050600073ffffffffffffffffffffffffffffffffffffffff168173ffffffffffffffffffffffffffffffffffffffff161415610b38576040517f08c379a0000000000000000000000000000000000000000000000000000000008152600401610b2f90612c30565b60405180910390fd5b80915050919050565b60008073ffffffffffffffffffffffffffffffffffffffff168273ffffffffffffffffffffffffffffffffffffffff161415610bb2576040517f08c379a0000000000000000000000000000000000000000000000000000000008152600401610ba990612cc2565b60405180910390fd5b600360008373ffffffffffffffffffffffffffffffffffffffff1673ffffffffffffffffffffffffffffffffffffffff168152602001908152602001600020549050919050565b606060018054610c0890612944565b80601f0160208091040260200160405190810160405280929190818152602001828054610c3490612944565b8015610c815780601f10610c5657610100808354040283529160200191610c81565b820191906000526020600020905b815481529060010190602001808311610c6457829003601f168201915b5050505050905090565b610c93612079565b6009600183610ca29190612d11565b81548110610cb357610cb2612d45565b5b9060005260206000209060040201604051806080016040529081600082018054610cdc90612944565b80601f0160208091040260200160405190810160405280929190818152602001828054610d0890612944565b8015610d555780601f10610d2a57610100808354040283529160200191610d55565b820191906000526020600020905b815481529060010190602001808311610d3857829003601f168201915b505050505081526020016001820160009054906101000a900473ffffffffffffffffffffffffffffffffffffffff1673ffffffffffffffffffffffffffffffffffffffff1673ffffffffffffffffffffffffffffffffffffffff168152602001600282018054610dc490612944565b80601f0160208091040260200160405190810160405280929190818152602001828054610df090612944565b8015610e3d5780601f10610e1257610100808354040283529160200191610e3d565b820191906000526020600020905b815481529060010190602001808311610e2057829003601f168201915b50505050508152602001600382018054610e5690612944565b80601f0160208091040260200160405190810160405280929190818152602001828054610e8290612944565b8015610ecf5780601f10610ea457610100808354040283529160200191610ecf565b820191906000526020600020905b815481529060010190602001808311610eb257829003601f168201915b5050505050815250509050919050565b60006008549050600754811115610ef557600080fd5b600073ffffffffffffffffffffffffffffffffffffffff166009600184610f1c9190612d11565b81548110610f2d57610f2c612d45565b5b906000526020600020906004020160010160009054906101000a900473ffffffffffffffffffffffffffffffffffffffff1673ffffffffffffffffffffffffffffffffffffffff1614610f7f57600080fd5b600654341015610f8e57600080fd5b336009600184610f9e9190612d11565b81548110610faf57610fae612d45565b5b906000526020600020906004020160010160006101000a81548173ffffffffffffffffffffffffffffffffffffffff021916908373ffffffffffffffffffffffffffffffffffffffff160217905550600160085461100d9190612d74565b60088190555061101d3383611921565b5050565b61103361102c61151b565b838361193f565b5050565b61104861104261151b565b836115dc565b611087576040517f08c379a000000000000000000000000000000000000000000000000000000000815260040161107e90612b9e565b60405180910390fd5b61109384848484611aac565b50505050565b60606110a4826114af565b6110e3576040517f08c379a00000000000000000000000000000000000000000000000000000000081526004016110da90612e3c565b60405180910390fd5b60006110ed611b08565b9050600081511161110d5760405180602001604052806000815250611138565b8061111784611b1f565b604051602001611128929190612e98565b6040516020818303038152906040525b915050919050565b60075481565b60606009805480602002602001604051908101604052809291908181526020016000905b828210156113a8578382906000526020600020906004020160405180608001604052908160008201805461119d90612944565b80601f01602080910402602001604051908101604052809291908181526020018280546111c990612944565b80156112165780601f106111eb57610100808354040283529160200191611216565b820191906000526020600020905b8154815290600101906020018083116111f957829003601f168201915b505050505081526020016001820160009054906101000a900473ffffffffffffffffffffffffffffffffffffffff1673ffffffffffffffffffffffffffffffffffffffff1673ffffffffffffffffffffffffffffffffffffffff16815260200160028201805461128590612944565b80601f01602080910402602001604051908101604052809291908181526020018280546112b190612944565b80156112fe5780601f106112d3576101008083540402835291602001916112fe565b820191906000526020600020905b8154815290600101906020018083116112e157829003601f168201915b5050505050815260200160038201805461131790612944565b80601f016020809104026020016040519081016040528092919081815260200182805461134390612944565b80156113905780601f1061136557610100808354040283529160200191611390565b820191906000526020600020905b81548152906001019060200180831161137357829003601f168201915b5050505050815250508152602001906001019061116a565b50505050905090565b6000600560008473ffffffffffffffffffffffffffffffffffffffff1673ffffffffffffffffffffffffffffffffffffffff16815260200190815260200160002060008373ffffffffffffffffffffffffffffffffffffffff1673ffffffffffffffffffffffffffffffffffffffff16815260200190815260200160002060009054906101000a900460ff16905092915050565b60007f01ffc9a7000000000000000000000000000000000000000000000000000000007bffffffffffffffffffffffffffffffffffffffffffffffffffffffff1916827bffffffffffffffffffffffffffffffffffffffffffffffffffffffff1916149050919050565b60008073ffffffffffffffffffffffffffffffffffffffff166002600084815260200190815260200160002060009054906101000a900473ffffffffffffffffffffffffffffffffffffffff1673ffffffffffffffffffffffffffffffffffffffff1614159050919050565b600033905090565b816004600083815260200190815260200160002060006101000a81548173ffffffffffffffffffffffffffffffffffffffff021916908373ffffffffffffffffffffffffffffffffffffffff160217905550808273ffffffffffffffffffffffffffffffffffffffff1661159683610a8f565b73ffffffffffffffffffffffffffffffffffffffff167f8c5be1e5ebec7d5bd14f71427d1e84f3dd0314c0f7b2291e5b200ac8c7c3b92560405160405180910390a45050565b60006115e7826114af565b611626576040517f08c379a000000000000000000000000000000000000000000000000000000000815260040161161d90612f2e565b60405180910390fd5b600061163183610a8f565b90508073ffffffffffffffffffffffffffffffffffffffff168473ffffffffffffffffffffffffffffffffffffffff161480611673575061167281856113b1565b5b806116b157508373ffffffffffffffffffffffffffffffffffffffff166116998461066e565b73ffffffffffffffffffffffffffffffffffffffff16145b91505092915050565b8273ffffffffffffffffffffffffffffffffffffffff166116da82610a8f565b73ffffffffffffffffffffffffffffffffffffffff1614611730576040517f08c379a000000000000000000000000000000000000000000000000000000000815260040161172790612fc0565b60405180910390fd5b600073ffffffffffffffffffffffffffffffffffffffff168273ffffffffffffffffffffffffffffffffffffffff1614156117a0576040517f08c379a000000000000000000000000000000000000000000000000000000000815260040161179790613052565b60405180910390fd5b6117ab838383611c80565b6117b6600082611523565b6001600360008573ffffffffffffffffffffffffffffffffffffffff1673ffffffffffffffffffffffffffffffffffffffff16815260200190815260200160002060008282546118069190612d11565b925050819055506001600360008473ffffffffffffffffffffffffffffffffffffffff1673ffffffffffffffffffffffffffffffffffffffff168152602001908152602001600020600082825461185d9190612d74565b92505081905550816002600083815260200190815260200160002060006101000a81548173ffffffffffffffffffffffffffffffffffffffff021916908373ffffffffffffffffffffffffffffffffffffffff160217905550808273ffffffffffffffffffffffffffffffffffffffff168473ffffffffffffffffffffffffffffffffffffffff167fddf252ad1be2c89b69c2b068fc378daa952ba7f163c4a11628f55a4df523b3ef60405160405180910390a461191c838383611c85565b505050565b61193b828260405180602001604052806000815250611c8a565b5050565b8173ffffffffffffffffffffffffffffffffffffffff168373ffffffffffffffffffffffffffffffffffffffff1614156119ae576040517f08c379a00000000000000000000000000000000000000000000000000000000081526004016119a5906130be565b60405180910390fd5b80600560008573ffffffffffffffffffffffffffffffffffffffff1673ffffffffffffffffffffffffffffffffffffffff16815260200190815260200160002060008473ffffffffffffffffffffffffffffffffffffffff1673ffffffffffffffffffffffffffffffffffffffff16815260200190815260200160002060006101000a81548160ff0219169083151502179055508173ffffffffffffffffffffffffffffffffffffffff168373ffffffffffffffffffffffffffffffffffffffff167f17307eab39ab6107e8899845ad3d59bd9653f200f220920489ca2b5937696c3183604051611a9f919061216b565b60405180910390a3505050565b611ab78484846116ba565b611ac384848484611ce5565b611b02576040517f08c379a0000000000000000000000000000000000000000000000000000000008152600401611af990613150565b60405180910390fd5b50505050565b606060405180602001604052806000815250905090565b60606000821415611b67576040518060400160405280600181526020017f30000000000000000000000000000000000000000000000000000000000000008152509050611c7b565b600082905060005b60008214611b99578080611b8290613170565b915050600a82611b9291906131e8565b9150611b6f565b60008167ffffffffffffffff811115611bb557611bb46125d2565b5b6040519080825280601f01601f191660200182016040528015611be75781602001600182028036833780820191505090505b5090505b60008514611c7457600182611c009190612d11565b9150600a85611c0f9190613219565b6030611c1b9190612d74565b60f81b818381518110611c3157611c30612d45565b5b60200101907effffffffffffffffffffffffffffffffffffffffffffffffffffffffffffff1916908160001a905350600a85611c6d91906131e8565b9450611beb565b8093505050505b919050565b505050565b505050565b611c948383611e7c565b611ca16000848484611ce5565b611ce0576040517f08c379a0000000000000000000000000000000000000000000000000000000008152600401611cd790613150565b60405180910390fd5b505050565b6000611d068473ffffffffffffffffffffffffffffffffffffffff16612056565b15611e6f578373ffffffffffffffffffffffffffffffffffffffff1663150b7a02611d2f61151b565b8786866040518563ffffffff1660e01b8152600401611d51949392919061329f565b602060405180830381600087803b158015611d6b57600080fd5b505af1925050508015611d9c57506040513d601f19601f82011682018060405250810190611d999190613300565b60015b611e1f573d8060008114611dcc576040519150601f19603f3d011682016040523d82523d6000602084013e611dd1565b606091505b50600081511415611e17576040517f08c379a0000000000000000000000000000000000000000000000000000000008152600401611e0e90613150565b60405180910390fd5b805181602001fd5b63150b7a0260e01b7bffffffffffffffffffffffffffffffffffffffffffffffffffffffff1916817bffffffffffffffffffffffffffffffffffffffffffffffffffffffff191614915050611e74565b600190505b949350505050565b600073ffffffffffffffffffffffffffffffffffffffff168273ffffffffffffffffffffffffffffffffffffffff161415611eec576040517f08c379a0000000000000000000000000000000000000000000000000000000008152600401611ee390613379565b60405180910390fd5b611ef5816114af565b15611f35576040517f08c379a0000000000000000000000000000000000000000000000000000000008152600401611f2c906133e5565b60405180910390fd5b611f4160008383611c80565b6001600360008473ffffffffffffffffffffffffffffffffffffffff1673ffffffffffffffffffffffffffffffffffffffff1681526020019081526020016000206000828254611f919190612d74565b92505081905550816002600083815260200190815260200160002060006101000a81548173ffffffffffffffffffffffffffffffffffffffff021916908373ffffffffffffffffffffffffffffffffffffffff160217905550808273ffffffffffffffffffffffffffffffffffffffff16600073ffffffffffffffffffffffffffffffffffffffff167fddf252ad1be2c89b69c2b068fc378daa952ba7f163c4a11628f55a4df523b3ef60405160405180910390a461205260008383611c85565b5050565b6000808273ffffffffffffffffffffffffffffffffffffffff163b119050919050565b604051806080016040528060608152602001600073ffffffffffffffffffffffffffffffffffffffff16815260200160608152602001606081525090565b6000604051905090565b600080fd5b600080fd5b60007fffffffff0000000000000000000000000000000000000000000000000000000082169050919050565b612100816120cb565b811461210b57600080fd5b50565b60008135905061211d816120f7565b92915050565b600060208284031215612139576121386120c1565b5b60006121478482850161210e565b91505092915050565b60008115159050919050565b61216581612150565b82525050565b6000602082019050612180600083018461215c565b92915050565b600081519050919050565b600082825260208201905092915050565b60005b838110156121c05780820151818401526020810190506121a5565b838111156121cf576000848401525b50505050565b6000601f19601f8301169050919050565b60006121f182612186565b6121fb8185612191565b935061220b8185602086016121a2565b612214816121d5565b840191505092915050565b6000602082019050818103600083015261223981846121e6565b905092915050565b6000819050919050565b61225481612241565b811461225f57600080fd5b50565b6000813590506122718161224b565b92915050565b60006020828403121561228d5761228c6120c1565b5b600061229b84828501612262565b91505092915050565b600073ffffffffffffffffffffffffffffffffffffffff82169050919050565b60006122cf826122a4565b9050919050565b6122df816122c4565b82525050565b60006020820190506122fa60008301846122d6565b92915050565b612309816122c4565b811461231457600080fd5b50565b60008135905061232681612300565b92915050565b60008060408385031215612343576123426120c1565b5b600061235185828601612317565b925050602061236285828601612262565b9150509250929050565b61237581612241565b82525050565b6000602082019050612390600083018461236c565b92915050565b6000806000606084860312156123af576123ae6120c1565b5b60006123bd86828701612317565b93505060206123ce86828701612317565b92505060406123df86828701612262565b9150509250925092565b6000608082019050818103600083015261240381876121e6565b905061241260208301866122d6565b818103604083015261242481856121e6565b9050818103606083015261243881846121e6565b905095945050505050565b600060208284031215612459576124586120c1565b5b600061246784828501612317565b91505092915050565b600082825260208201905092915050565b600061248c82612186565b6124968185612470565b93506124a68185602086016121a2565b6124af816121d5565b840191505092915050565b6124c3816122c4565b82525050565b600060808301600083015184820360008601526124e68282612481565b91505060208301516124fb60208601826124ba565b50604083015184820360408601526125138282612481565b9150506060830151848203606086015261252d8282612481565b9150508091505092915050565b6000602082019050818103600083015261255481846124c9565b905092915050565b61256581612150565b811461257057600080fd5b50565b6000813590506125828161255c565b92915050565b6000806040838503121561259f5761259e6120c1565b5b60006125ad85828601612317565b92505060206125be85828601612573565b9150509250929050565b600080fd5b600080fd5b7f4e487b7100000000000000000000000000000000000000000000000000000000600052604160045260246000fd5b61260a826121d5565b810181811067ffffffffffffffff82111715612629576126286125d2565b5b80604052505050565b600061263c6120b7565b90506126488282612601565b919050565b600067ffffffffffffffff821115612668576126676125d2565b5b612671826121d5565b9050602081019050919050565b82818337600083830152505050565b60006126a061269b8461264d565b612632565b9050828152602081018484840111156126bc576126bb6125cd565b5b6126c784828561267e565b509392505050565b600082601f8301126126e4576126e36125c8565b5b81356126f484826020860161268d565b91505092915050565b60008060008060808587031215612717576127166120c1565b5b600061272587828801612317565b945050602061273687828801612317565b935050604061274787828801612262565b925050606085013567ffffffffffffffff811115612768576127676120c6565b5b612774878288016126cf565b91505092959194509250565b600081519050919050565b600082825260208201905092915050565b6000819050602082019050919050565b600060808301600083015184820360008601526127c98282612481565b91505060208301516127de60208601826124ba565b50604083015184820360408601526127f68282612481565b915050606083015184820360608601526128108282612481565b9150508091505092915050565b600061282983836127ac565b905092915050565b6000602082019050919050565b600061284982612780565b612853818561278b565b9350836020820285016128658561279c565b8060005b858110156128a15784840389528151612882858261281d565b945061288d83612831565b925060208a01995050600181019050612869565b50829750879550505050505092915050565b600060208201905081810360008301526128cd818461283e565b905092915050565b600080604083850312156128ec576128eb6120c1565b5b60006128fa85828601612317565b925050602061290b85828601612317565b9150509250929050565b7f4e487b7100000000000000000000000000000000000000000000000000000000600052602260045260246000fd5b6000600282049050600182168061295c57607f821691505b602082108114156129705761296f612915565b5b50919050565b7f4552433732313a20617070726f76656420717565727920666f72206e6f6e657860008201527f697374656e7420746f6b656e0000000000000000000000000000000000000000602082015250565b60006129d2602c83612191565b91506129dd82612976565b604082019050919050565b60006020820190508181036000830152612a01816129c5565b9050919050565b7f4552433732313a20617070726f76616c20746f2063757272656e74206f776e6560008201527f7200000000000000000000000000000000000000000000000000000000000000602082015250565b6000612a64602183612191565b9150612a6f82612a08565b604082019050919050565b60006020820190508181036000830152612a9381612a57565b9050919050565b7f4552433732313a20617070726f76652063616c6c6572206973206e6f74206f7760008201527f6e6572206e6f7220617070726f76656420666f7220616c6c0000000000000000602082015250565b6000612af6603883612191565b9150612b0182612a9a565b604082019050919050565b60006020820190508181036000830152612b2581612ae9565b9050919050565b7f4552433732313a207472616e736665722063616c6c6572206973206e6f74206f60008201527f776e6572206e6f7220617070726f766564000000000000000000000000000000602082015250565b6000612b88603183612191565b9150612b9382612b2c565b604082019050919050565b60006020820190508181036000830152612bb781612b7b565b9050919050565b7f4552433732313a206f776e657220717565727920666f72206e6f6e657869737460008201527f656e7420746f6b656e0000000000000000000000000000000000000000000000602082015250565b6000612c1a602983612191565b9150612c2582612bbe565b604082019050919050565b60006020820190508181036000830152612c4981612c0d565b9050919050565b7f4552433732313a2062616c616e636520717565727920666f7220746865207a6560008201527f726f206164647265737300000000000000000000000000000000000000000000602082015250565b6000612cac602a83612191565b9150612cb782612c50565b604082019050919050565b60006020820190508181036000830152612cdb81612c9f565b9050919050565b7f4e487b7100000000000000000000000000000000000000000000000000000000600052601160045260246000fd5b6000612d1c82612241565b9150612d2783612241565b925082821015612d3a57612d39612ce2565b5b828203905092915050565b7f4e487b7100000000000000000000000000000000000000000000000000000000600052603260045260246000fd5b6000612d7f82612241565b9150612d8a83612241565b9250827fffffffffffffffffffffffffffffffffffffffffffffffffffffffffffffffff03821115612dbf57612dbe612ce2565b5b828201905092915050565b7f4552433732314d657461646174613a2055524920717565727920666f72206e6f60008201527f6e6578697374656e7420746f6b656e0000000000000000000000000000000000602082015250565b6000612e26602f83612191565b9150612e3182612dca565b604082019050919050565b60006020820190508181036000830152612e5581612e19565b9050919050565b600081905092915050565b6000612e7282612186565b612e7c8185612e5c565b9350612e8c8185602086016121a2565b80840191505092915050565b6000612ea48285612e67565b9150612eb08284612e67565b91508190509392505050565b7f4552433732313a206f70657261746f7220717565727920666f72206e6f6e657860008201527f697374656e7420746f6b656e0000000000000000000000000000000000000000602082015250565b6000612f18602c83612191565b9150612f2382612ebc565b604082019050919050565b60006020820190508181036000830152612f4781612f0b565b9050919050565b7f4552433732313a207472616e736665722066726f6d20696e636f72726563742060008201527f6f776e6572000000000000000000000000000000000000000000000000000000602082015250565b6000612faa602583612191565b9150612fb582612f4e565b604082019050919050565b60006020820190508181036000830152612fd981612f9d565b9050919050565b7f4552433732313a207472616e7366657220746f20746865207a65726f2061646460008201527f7265737300000000000000000000000000000000000000000000000000000000602082015250565b600061303c602483612191565b915061304782612fe0565b604082019050919050565b6000602082019050818103600083015261306b8161302f565b9050919050565b7f4552433732313a20617070726f766520746f2063616c6c657200000000000000600082015250565b60006130a8601983612191565b91506130b382613072565b602082019050919050565b600060208201905081810360008301526130d78161309b565b9050919050565b7f4552433732313a207472616e7366657220746f206e6f6e20455243373231526560008201527f63656976657220696d706c656d656e7465720000000000000000000000000000602082015250565b600061313a603283612191565b9150613145826130de565b604082019050919050565b600060208201905081810360008301526131698161312d565b9050919050565b600061317b82612241565b91507fffffffffffffffffffffffffffffffffffffffffffffffffffffffffffffffff8214156131ae576131ad612ce2565b5b600182019050919050565b7f4e487b7100000000000000000000000000000000000000000000000000000000600052601260045260246000fd5b60006131f382612241565b91506131fe83612241565b92508261320e5761320d6131b9565b5b828204905092915050565b600061322482612241565b915061322f83612241565b92508261323f5761323e6131b9565b5b828206905092915050565b600081519050919050565b600082825260208201905092915050565b60006132718261324a565b61327b8185613255565b935061328b8185602086016121a2565b613294816121d5565b840191505092915050565b60006080820190506132b460008301876122d6565b6132c160208301866122d6565b6132ce604083018561236c565b81810360608301526132e08184613266565b905095945050505050565b6000815190506132fa816120f7565b92915050565b600060208284031215613316576133156120c1565b5b6000613324848285016132eb565b91505092915050565b7f4552433732313a206d696e7420746f20746865207a65726f2061646472657373600082015250565b6000613363602083612191565b915061336e8261332d565b602082019050919050565b6000602082019050818103600083015261339281613356565b9050919050565b7f4552433732313a20746f6b656e20616c7265616479206d696e74656400000000600082015250565b60006133cf601c83612191565b91506133da82613399565b602082019050919050565b600060208201905081810360008301526133fe816133c2565b905091905056fea26469706673582212203fa91149c81d9dedc63a1007a8d948e62561dbd5044a2373daab3e6d6ce53df164736f6c63430008090033",
  "immutableReferences": {},
  "source": "// SPDX-License-Identifier: MIT\npragma solidity ^0.8.0;\n\nimport \"@openzeppelin/contracts/token/ERC721/ERC721.sol\";\n\ncontract Property is ERC721 {\n    uint256 public cost = 5 ether;\n    uint256 public maxSupply = 3;\n    uint256 public totalSupply = 0;\n\n    struct Building {\n        string name;\n        address owner;\n        string streetName;\n        string postcode;\n    }\n\n    Building[] public buildings;\n\n    constructor(\n        string memory _name,\n        string memory _symbol,\n        uint256 _cost\n    ) ERC721(_name, _symbol) {\n        cost = _cost;\n\n\n        buildings.push(Building('Rosedale House', address(0x0), 'Elm Street', 'E31 0PB'));\n        buildings.push(Building('Oakview', address(0x0), 'Elderberry Lane', 'WC2 1FL'));\n        buildings.push(Building('Coxes Meadow', address(0x0), 'Queen Street', 'WB7 3SE'));\n    }\n\n    function mint(uint256 _id) public payable {\n        uint256 supply = totalSupply;\n        require(supply <= maxSupply);\n        require(buildings[_id - 1].owner == address(0x0));\n        require(msg.value >= cost);\n\n        buildings[_id - 1].owner = msg.sender;\n        totalSupply = totalSupply + 1;\n\n        _safeMint(msg.sender, _id);\n    }\n\n    function getBuildings() public view returns (Building[] memory) {\n        return buildings;\n    }\n\n    function getBuilding(uint256 _id) public view returns (Building memory) {\n        return buildings[_id - 1];\n    }\n}",
  "sourcePath": "/home/rahni/Documents/property_metaverse/src/contracts/Property.sol",
  "compiler": {
    "name": "solc",
    "version": "0.8.9+commit.e5eed63a.Emscripten.clang"
  },
  "schemaVersion": "3.4.7",
  "updatedAt": "2022-05-15T20:10:13.750Z",
  "networkType": "ethereum",
  "devdoc": {
    "kind": "dev",
    "methods": {
      "approve(address,uint256)": {
        "details": "See {IERC721-approve}."
      },
      "balanceOf(address)": {
        "details": "See {IERC721-balanceOf}."
      },
      "getApproved(uint256)": {
        "details": "See {IERC721-getApproved}."
      },
      "isApprovedForAll(address,address)": {
        "details": "See {IERC721-isApprovedForAll}."
      },
      "name()": {
        "details": "See {IERC721Metadata-name}."
      },
      "ownerOf(uint256)": {
        "details": "See {IERC721-ownerOf}."
      },
      "safeTransferFrom(address,address,uint256)": {
        "details": "See {IERC721-safeTransferFrom}."
      },
      "safeTransferFrom(address,address,uint256,bytes)": {
        "details": "See {IERC721-safeTransferFrom}."
      },
      "setApprovalForAll(address,bool)": {
        "details": "See {IERC721-setApprovalForAll}."
      },
      "supportsInterface(bytes4)": {
        "details": "See {IERC165-supportsInterface}."
      },
      "symbol()": {
        "details": "See {IERC721Metadata-symbol}."
      },
      "tokenURI(uint256)": {
        "details": "See {IERC721Metadata-tokenURI}."
      },
      "transferFrom(address,address,uint256)": {
        "details": "See {IERC721-transferFrom}."
      }
    },
    "version": 1
  },
  "userdoc": {
    "kind": "user",
    "methods": {},
    "version": 1
  }
}