{
  "contractName": "Property",
  "abi": [
    {
      "inputs": [
        {
          "internalType": "string",
          "name": "_name",
          "type": "string"
        },
        {
          "internalType": "string",
          "name": "_symbol",
          "type": "string"
        },
        {
          "internalType": "uint256",
          "name": "_cost",
          "type": "uint256"
        }
      ],
      "stateMutability": "nonpayable",
      "type": "constructor"
    },
    {
      "anonymous": false,
      "inputs": [
        {
          "indexed": true,
          "internalType": "address",
          "name": "owner",
          "type": "address"
        },
        {
          "indexed": true,
          "internalType": "address",
          "name": "approved",
          "type": "address"
        },
        {
          "indexed": true,
          "internalType": "uint256",
          "name": "tokenId",
          "type": "uint256"
        }
      ],
      "name": "Approval",
      "type": "event"
    },
    {
      "anonymous": false,
      "inputs": [
        {
          "indexed": true,
          "internalType": "address",
          "name": "owner",
          "type": "address"
        },
        {
          "indexed": true,
          "internalType": "address",
          "name": "operator",
          "type": "address"
        },
        {
          "indexed": false,
          "internalType": "bool",
          "name": "approved",
          "type": "bool"
        }
      ],
      "name": "ApprovalForAll",
      "type": "event"
    },
    {
      "anonymous": false,
      "inputs": [
        {
          "indexed": true,
          "internalType": "address",
          "name": "from",
          "type": "address"
        },
        {
          "indexed": true,
          "internalType": "address",
          "name": "to",
          "type": "address"
        },
        {
          "indexed": true,
          "internalType": "uint256",
          "name": "tokenId",
          "type": "uint256"
        }
      ],
      "name": "Transfer",
      "type": "event"
    },
    {
      "inputs": [
        {
          "internalType": "address",
          "name": "to",
          "type": "address"
        },
        {
          "internalType": "uint256",
          "name": "tokenId",
          "type": "uint256"
        }
      ],
      "name": "approve",
      "outputs": [],
      "stateMutability": "nonpayable",
      "type": "function"
    },
    {
      "inputs": [
        {
          "internalType": "address",
          "name": "owner",
          "type": "address"
        }
      ],
      "name": "balanceOf",
      "outputs": [
        {
          "internalType": "uint256",
          "name": "",
          "type": "uint256"
        }
      ],
      "stateMutability": "view",
      "type": "function",
      "constant": true
    },
    {
      "inputs": [
        {
          "internalType": "uint256",
          "name": "",
          "type": "uint256"
        }
      ],
      "name": "buildings",
      "outputs": [
        {
          "internalType": "string",
          "name": "name",
          "type": "string"
        },
        {
          "internalType": "address",
          "name": "owner",
          "type": "address"
        }
      ],
      "stateMutability": "view",
      "type": "function",
      "constant": true
    },
    {
      "inputs": [],
      "name": "cost",
      "outputs": [
        {
          "internalType": "uint256",
          "name": "",
          "type": "uint256"
        }
      ],
      "stateMutability": "view",
      "type": "function",
      "constant": true
    },
    {
      "inputs": [
        {
          "internalType": "uint256",
          "name": "tokenId",
          "type": "uint256"
        }
      ],
      "name": "getApproved",
      "outputs": [
        {
          "internalType": "address",
          "name": "",
          "type": "address"
        }
      ],
      "stateMutability": "view",
      "type": "function",
      "constant": true
    },
    {
      "inputs": [
        {
          "internalType": "address",
          "name": "owner",
          "type": "address"
        },
        {
          "internalType": "address",
          "name": "operator",
          "type": "address"
        }
      ],
      "name": "isApprovedForAll",
      "outputs": [
        {
          "internalType": "bool",
          "name": "",
          "type": "bool"
        }
      ],
      "stateMutability": "view",
      "type": "function",
      "constant": true
    },
    {
      "inputs": [],
      "name": "maxSupply",
      "outputs": [
        {
          "internalType": "uint256",
          "name": "",
          "type": "uint256"
        }
      ],
      "stateMutability": "view",
      "type": "function",
      "constant": true
    },
    {
      "inputs": [],
      "name": "name",
      "outputs": [
        {
          "internalType": "string",
          "name": "",
          "type": "string"
        }
      ],
      "stateMutability": "view",
      "type": "function",
      "constant": true
    },
    {
      "inputs": [
        {
          "internalType": "uint256",
          "name": "tokenId",
          "type": "uint256"
        }
      ],
      "name": "ownerOf",
      "outputs": [
        {
          "internalType": "address",
          "name": "",
          "type": "address"
        }
      ],
      "stateMutability": "view",
      "type": "function",
      "constant": true
    },
    {
      "inputs": [
        {
          "internalType": "address",
          "name": "from",
          "type": "address"
        },
        {
          "internalType": "address",
          "name": "to",
          "type": "address"
        },
        {
          "internalType": "uint256",
          "name": "tokenId",
          "type": "uint256"
        }
      ],
      "name": "safeTransferFrom",
      "outputs": [],
      "stateMutability": "nonpayable",
      "type": "function"
    },
    {
      "inputs": [
        {
          "internalType": "address",
          "name": "from",
          "type": "address"
        },
        {
          "internalType": "address",
          "name": "to",
          "type": "address"
        },
        {
          "internalType": "uint256",
          "name": "tokenId",
          "type": "uint256"
        },
        {
          "internalType": "bytes",
          "name": "_data",
          "type": "bytes"
        }
      ],
      "name": "safeTransferFrom",
      "outputs": [],
      "stateMutability": "nonpayable",
      "type": "function"
    },
    {
      "inputs": [
        {
          "internalType": "address",
          "name": "operator",
          "type": "address"
        },
        {
          "internalType": "bool",
          "name": "approved",
          "type": "bool"
        }
      ],
      "name": "setApprovalForAll",
      "outputs": [],
      "stateMutability": "nonpayable",
      "type": "function"
    },
    {
      "inputs": [
        {
          "internalType": "bytes4",
          "name": "interfaceId",
          "type": "bytes4"
        }
      ],
      "name": "supportsInterface",
      "outputs": [
        {
          "internalType": "bool",
          "name": "",
          "type": "bool"
        }
      ],
      "stateMutability": "view",
      "type": "function",
      "constant": true
    },
    {
      "inputs": [],
      "name": "symbol",
      "outputs": [
        {
          "internalType": "string",
          "name": "",
          "type": "string"
        }
      ],
      "stateMutability": "view",
      "type": "function",
      "constant": true
    },
    {
      "inputs": [
        {
          "internalType": "uint256",
          "name": "tokenId",
          "type": "uint256"
        }
      ],
      "name": "tokenURI",
      "outputs": [
        {
          "internalType": "string",
          "name": "",
          "type": "string"
        }
      ],
      "stateMutability": "view",
      "type": "function",
      "constant": true
    },
    {
      "inputs": [],
      "name": "totalSupply",
      "outputs": [
        {
          "internalType": "uint256",
          "name": "",
          "type": "uint256"
        }
      ],
      "stateMutability": "view",
      "type": "function",
      "constant": true
    },
    {
      "inputs": [
        {
          "internalType": "address",
          "name": "from",
          "type": "address"
        },
        {
          "internalType": "address",
          "name": "to",
          "type": "address"
        },
        {
          "internalType": "uint256",
          "name": "tokenId",
          "type": "uint256"
        }
      ],
      "name": "transferFrom",
      "outputs": [],
      "stateMutability": "nonpayable",
      "type": "function"
    },
    {
      "inputs": [
        {
          "internalType": "uint256",
          "name": "_id",
          "type": "uint256"
        }
      ],
      "name": "mint",
      "outputs": [],
      "stateMutability": "payable",
      "type": "function",
      "payable": true
    },
    {
      "inputs": [],
      "name": "getBuildings",
      "outputs": [
        {
          "components": [
            {
              "internalType": "string",
              "name": "name",
              "type": "string"
            },
            {
              "internalType": "address",
              "name": "owner",
              "type": "address"
            }
          ],
          "internalType": "struct Property.Building[]",
          "name": "",
          "type": "tuple[]"
        }
      ],
      "stateMutability": "view",
      "type": "function",
      "constant": true
    },
    {
      "inputs": [
        {
          "internalType": "uint256",
          "name": "_id",
          "type": "uint256"
        }
      ],
      "name": "getBuilding",
      "outputs": [
        {
          "components": [
            {
              "internalType": "string",
              "name": "name",
              "type": "string"
            },
            {
              "internalType": "address",
              "name": "owner",
              "type": "address"
            }
          ],
          "internalType": "struct Property.Building",
          "name": "",
          "type": "tuple"
        }
      ],
      "stateMutability": "view",
      "type": "function",
      "constant": true
    }
  ],
  "bytecode": "0x6080604052674563918244f40000600655600360075560006008553480156200002757600080fd5b506040516200373b3803806200373b83398181016040528101906200004d9190620005f7565b82828160009080519060200190620000679291906200036f565b508060019080519060200190620000809291906200036f565b50505080600681905550600960405180604001604052806040518060400160405280600e81526020017f526f736564616c6520486f7573650000000000000000000000000000000000008152508152602001600073ffffffffffffffffffffffffffffffffffffffff1681525090806001815401808255809150506001900390600052602060002090600202016000909190919091506000820151816000019080519060200190620001349291906200036f565b5060208201518160010160006101000a81548173ffffffffffffffffffffffffffffffffffffffff021916908373ffffffffffffffffffffffffffffffffffffffff1602179055505050600960405180604001604052806040518060400160405280600781526020017f4f616b76696577000000000000000000000000000000000000000000000000008152508152602001600073ffffffffffffffffffffffffffffffffffffffff1681525090806001815401808255809150506001900390600052602060002090600202016000909190919091506000820151816000019080519060200190620002289291906200036f565b5060208201518160010160006101000a81548173ffffffffffffffffffffffffffffffffffffffff021916908373ffffffffffffffffffffffffffffffffffffffff1602179055505050600960405180604001604052806040518060400160405280600c81526020017f436f786573204d6561646f7700000000000000000000000000000000000000008152508152602001600073ffffffffffffffffffffffffffffffffffffffff16815250908060018154018082558091505060019003906000526020600020906002020160009091909190915060008201518160000190805190602001906200031c9291906200036f565b5060208201518160010160006101000a81548173ffffffffffffffffffffffffffffffffffffffff021916908373ffffffffffffffffffffffffffffffffffffffff1602179055505050505050620006f6565b8280546200037d90620006c0565b90600052602060002090601f016020900481019282620003a15760008555620003ed565b82601f10620003bc57805160ff1916838001178555620003ed565b82800160010185558215620003ed579182015b82811115620003ec578251825591602001919060010190620003cf565b5b509050620003fc919062000400565b5090565b5b808211156200041b57600081600090555060010162000401565b5090565b6000604051905090565b600080fd5b600080fd5b600080fd5b600080fd5b6000601f19601f8301169050919050565b7f4e487b7100000000000000000000000000000000000000000000000000000000600052604160045260246000fd5b62000488826200043d565b810181811067ffffffffffffffff82111715620004aa57620004a96200044e565b5b80604052505050565b6000620004bf6200041f565b9050620004cd82826200047d565b919050565b600067ffffffffffffffff821115620004f057620004ef6200044e565b5b620004fb826200043d565b9050602081019050919050565b60005b83811015620005285780820151818401526020810190506200050b565b8381111562000538576000848401525b50505050565b6000620005556200054f84620004d2565b620004b3565b90508281526020810184848401111562000574576200057362000438565b5b6200058184828562000508565b509392505050565b600082601f830112620005a157620005a062000433565b5b8151620005b38482602086016200053e565b91505092915050565b6000819050919050565b620005d181620005bc565b8114620005dd57600080fd5b50565b600081519050620005f181620005c6565b92915050565b60008060006060848603121562000613576200061262000429565b5b600084015167ffffffffffffffff8111156200063457620006336200042e565b5b620006428682870162000589565b935050602084015167ffffffffffffffff8111156200066657620006656200042e565b5b620006748682870162000589565b92505060406200068786828701620005e0565b9150509250925092565b7f4e487b7100000000000000000000000000000000000000000000000000000000600052602260045260246000fd5b60006002820490506001821680620006d957607f821691505b60208210811415620006f057620006ef62000691565b5b50919050565b61303580620007066000396000f3fe60806040526004361061011f5760003560e01c806370a08231116100a0578063b88d4fde11610064578063b88d4fde146103ff578063c87b56dd14610428578063d5abeb0114610465578063d9cf6a2614610490578063e985e9c5146104bb5761011f565b806370a082311461031557806395d89b41146103525780639dfd8b021461037d578063a0712d68146103ba578063a22cb465146103d65761011f565b806318160ddd116100e757806318160ddd1461021d57806323b872dd1461024857806342842e0e146102715780634c96a0621461029a5780636352211e146102d85761011f565b806301ffc9a71461012457806306fdde0314610161578063081812fc1461018c578063095ea7b3146101c957806313faede6146101f2575b600080fd5b34801561013057600080fd5b5061014b60048036038101906101469190611daf565b6104f8565b6040516101589190611df7565b60405180910390f35b34801561016d57600080fd5b506101766105da565b6040516101839190611eab565b60405180910390f35b34801561019857600080fd5b506101b360048036038101906101ae9190611f03565b61066c565b6040516101c09190611f71565b60405180910390f35b3480156101d557600080fd5b506101f060048036038101906101eb9190611fb8565b6106f1565b005b3480156101fe57600080fd5b50610207610809565b6040516102149190612007565b60405180910390f35b34801561022957600080fd5b5061023261080f565b60405161023f9190612007565b60405180910390f35b34801561025457600080fd5b5061026f600480360381019061026a9190612022565b610815565b005b34801561027d57600080fd5b5061029860048036038101906102939190612022565b610875565b005b3480156102a657600080fd5b506102c160048036038101906102bc9190611f03565b610895565b6040516102cf929190612075565b60405180910390f35b3480156102e457600080fd5b506102ff60048036038101906102fa9190611f03565b610971565b60405161030c9190611f71565b60405180910390f35b34801561032157600080fd5b5061033c600480360381019061033791906120a5565b610a23565b6040516103499190612007565b60405180910390f35b34801561035e57600080fd5b50610367610adb565b6040516103749190611eab565b60405180910390f35b34801561038957600080fd5b506103a4600480360381019061039f9190611f03565b610b6d565b6040516103b19190612168565b60405180910390f35b6103d460048036038101906103cf9190611f03565b610c9d565b005b3480156103e257600080fd5b506103fd60048036038101906103f891906121b6565b610ddf565b005b34801561040b57600080fd5b506104266004803603810190610421919061232b565b610df5565b005b34801561043457600080fd5b5061044f600480360381019061044a9190611f03565b610e57565b60405161045c9190611eab565b60405180910390f35b34801561047157600080fd5b5061047a610efe565b6040516104879190612007565b60405180910390f35b34801561049c57600080fd5b506104a5610f04565b6040516104b291906124ad565b60405180910390f35b3480156104c757600080fd5b506104e260048036038101906104dd91906124cf565b61104b565b6040516104ef9190611df7565b60405180910390f35b60007f80ac58cd000000000000000000000000000000000000000000000000000000007bffffffffffffffffffffffffffffffffffffffffffffffffffffffff1916827bffffffffffffffffffffffffffffffffffffffffffffffffffffffff191614806105c357507f5b5e139f000000000000000000000000000000000000000000000000000000007bffffffffffffffffffffffffffffffffffffffffffffffffffffffff1916827bffffffffffffffffffffffffffffffffffffffffffffffffffffffff1916145b806105d357506105d2826110df565b5b9050919050565b6060600080546105e99061253e565b80601f01602080910402602001604051908101604052809291908181526020018280546106159061253e565b80156106625780601f1061063757610100808354040283529160200191610662565b820191906000526020600020905b81548152906001019060200180831161064557829003601f168201915b5050505050905090565b600061067782611149565b6106b6576040517f08c379a00000000000000000000000000000000000000000000000000000000081526004016106ad906125e2565b60405180910390fd5b6004600083815260200190815260200160002060009054906101000a900473ffffffffffffffffffffffffffffffffffffffff169050919050565b60006106fc82610971565b90508073ffffffffffffffffffffffffffffffffffffffff168373ffffffffffffffffffffffffffffffffffffffff16141561076d576040517f08c379a000000000000000000000000000000000000000000000000000000000815260040161076490612674565b60405180910390fd5b8073ffffffffffffffffffffffffffffffffffffffff1661078c6111b5565b73ffffffffffffffffffffffffffffffffffffffff1614806107bb57506107ba816107b56111b5565b61104b565b5b6107fa576040517f08c379a00000000000000000000000000000000000000000000000000000000081526004016107f190612706565b60405180910390fd5b61080483836111bd565b505050565b60065481565b60085481565b6108266108206111b5565b82611276565b610865576040517f08c379a000000000000000000000000000000000000000000000000000000000815260040161085c90612798565b60405180910390fd5b610870838383611354565b505050565b61089083838360405180602001604052806000815250610df5565b505050565b600981815481106108a557600080fd5b90600052602060002090600202016000915090508060000180546108c89061253e565b80601f01602080910402602001604051908101604052809291908181526020018280546108f49061253e565b80156109415780601f1061091657610100808354040283529160200191610941565b820191906000526020600020905b81548152906001019060200180831161092457829003601f168201915b5050505050908060010160009054906101000a900473ffffffffffffffffffffffffffffffffffffffff16905082565b6000806002600084815260200190815260200160002060009054906101000a900473ffffffffffffffffffffffffffffffffffffffff169050600073ffffffffffffffffffffffffffffffffffffffff168173ffffffffffffffffffffffffffffffffffffffff161415610a1a576040517f08c379a0000000000000000000000000000000000000000000000000000000008152600401610a119061282a565b60405180910390fd5b80915050919050565b60008073ffffffffffffffffffffffffffffffffffffffff168273ffffffffffffffffffffffffffffffffffffffff161415610a94576040517f08c379a0000000000000000000000000000000000000000000000000000000008152600401610a8b906128bc565b60405180910390fd5b600360008373ffffffffffffffffffffffffffffffffffffffff1673ffffffffffffffffffffffffffffffffffffffff168152602001908152602001600020549050919050565b606060018054610aea9061253e565b80601f0160208091040260200160405190810160405280929190818152602001828054610b169061253e565b8015610b635780601f10610b3857610100808354040283529160200191610b63565b820191906000526020600020905b815481529060010190602001808311610b4657829003601f168201915b5050505050905090565b610b75611d13565b6009600183610b84919061290b565b81548110610b9557610b9461293f565b5b9060005260206000209060020201604051806040016040529081600082018054610bbe9061253e565b80601f0160208091040260200160405190810160405280929190818152602001828054610bea9061253e565b8015610c375780601f10610c0c57610100808354040283529160200191610c37565b820191906000526020600020905b815481529060010190602001808311610c1a57829003601f168201915b505050505081526020016001820160009054906101000a900473ffffffffffffffffffffffffffffffffffffffff1673ffffffffffffffffffffffffffffffffffffffff1673ffffffffffffffffffffffffffffffffffffffff16815250509050919050565b60006008549050600754811115610cb357600080fd5b600073ffffffffffffffffffffffffffffffffffffffff166009600184610cda919061290b565b81548110610ceb57610cea61293f565b5b906000526020600020906002020160010160009054906101000a900473ffffffffffffffffffffffffffffffffffffffff1673ffffffffffffffffffffffffffffffffffffffff1614610d3d57600080fd5b600654341015610d4c57600080fd5b336009600184610d5c919061290b565b81548110610d6d57610d6c61293f565b5b906000526020600020906002020160010160006101000a81548173ffffffffffffffffffffffffffffffffffffffff021916908373ffffffffffffffffffffffffffffffffffffffff1602179055506001600854610dcb919061296e565b600881905550610ddb33836115bb565b5050565b610df1610dea6111b5565b83836115d9565b5050565b610e06610e006111b5565b83611276565b610e45576040517f08c379a0000000000000000000000000000000000000000000000000000000008152600401610e3c90612798565b60405180910390fd5b610e5184848484611746565b50505050565b6060610e6282611149565b610ea1576040517f08c379a0000000000000000000000000000000000000000000000000000000008152600401610e9890612a36565b60405180910390fd5b6000610eab6117a2565b90506000815111610ecb5760405180602001604052806000815250610ef6565b80610ed5846117b9565b604051602001610ee6929190612a92565b6040516020818303038152906040525b915050919050565b60075481565b60606009805480602002602001604051908101604052809291908181526020016000905b828210156110425783829060005260206000209060020201604051806040016040529081600082018054610f5b9061253e565b80601f0160208091040260200160405190810160405280929190818152602001828054610f879061253e565b8015610fd45780601f10610fa957610100808354040283529160200191610fd4565b820191906000526020600020905b815481529060010190602001808311610fb757829003601f168201915b505050505081526020016001820160009054906101000a900473ffffffffffffffffffffffffffffffffffffffff1673ffffffffffffffffffffffffffffffffffffffff1673ffffffffffffffffffffffffffffffffffffffff168152505081526020019060010190610f28565b50505050905090565b6000600560008473ffffffffffffffffffffffffffffffffffffffff1673ffffffffffffffffffffffffffffffffffffffff16815260200190815260200160002060008373ffffffffffffffffffffffffffffffffffffffff1673ffffffffffffffffffffffffffffffffffffffff16815260200190815260200160002060009054906101000a900460ff16905092915050565b60007f01ffc9a7000000000000000000000000000000000000000000000000000000007bffffffffffffffffffffffffffffffffffffffffffffffffffffffff1916827bffffffffffffffffffffffffffffffffffffffffffffffffffffffff1916149050919050565b60008073ffffffffffffffffffffffffffffffffffffffff166002600084815260200190815260200160002060009054906101000a900473ffffffffffffffffffffffffffffffffffffffff1673ffffffffffffffffffffffffffffffffffffffff1614159050919050565b600033905090565b816004600083815260200190815260200160002060006101000a81548173ffffffffffffffffffffffffffffffffffffffff021916908373ffffffffffffffffffffffffffffffffffffffff160217905550808273ffffffffffffffffffffffffffffffffffffffff1661123083610971565b73ffffffffffffffffffffffffffffffffffffffff167f8c5be1e5ebec7d5bd14f71427d1e84f3dd0314c0f7b2291e5b200ac8c7c3b92560405160405180910390a45050565b600061128182611149565b6112c0576040517f08c379a00000000000000000000000000000000000000000000000000000000081526004016112b790612b28565b60405180910390fd5b60006112cb83610971565b90508073ffffffffffffffffffffffffffffffffffffffff168473ffffffffffffffffffffffffffffffffffffffff16148061130d575061130c818561104b565b5b8061134b57508373ffffffffffffffffffffffffffffffffffffffff166113338461066c565b73ffffffffffffffffffffffffffffffffffffffff16145b91505092915050565b8273ffffffffffffffffffffffffffffffffffffffff1661137482610971565b73ffffffffffffffffffffffffffffffffffffffff16146113ca576040517f08c379a00000000000000000000000000000000000000000000000000000000081526004016113c190612bba565b60405180910390fd5b600073ffffffffffffffffffffffffffffffffffffffff168273ffffffffffffffffffffffffffffffffffffffff16141561143a576040517f08c379a000000000000000000000000000000000000000000000000000000000815260040161143190612c4c565b60405180910390fd5b61144583838361191a565b6114506000826111bd565b6001600360008573ffffffffffffffffffffffffffffffffffffffff1673ffffffffffffffffffffffffffffffffffffffff16815260200190815260200160002060008282546114a0919061290b565b925050819055506001600360008473ffffffffffffffffffffffffffffffffffffffff1673ffffffffffffffffffffffffffffffffffffffff16815260200190815260200160002060008282546114f7919061296e565b92505081905550816002600083815260200190815260200160002060006101000a81548173ffffffffffffffffffffffffffffffffffffffff021916908373ffffffffffffffffffffffffffffffffffffffff160217905550808273ffffffffffffffffffffffffffffffffffffffff168473ffffffffffffffffffffffffffffffffffffffff167fddf252ad1be2c89b69c2b068fc378daa952ba7f163c4a11628f55a4df523b3ef60405160405180910390a46115b683838361191f565b505050565b6115d5828260405180602001604052806000815250611924565b5050565b8173ffffffffffffffffffffffffffffffffffffffff168373ffffffffffffffffffffffffffffffffffffffff161415611648576040517f08c379a000000000000000000000000000000000000000000000000000000000815260040161163f90612cb8565b60405180910390fd5b80600560008573ffffffffffffffffffffffffffffffffffffffff1673ffffffffffffffffffffffffffffffffffffffff16815260200190815260200160002060008473ffffffffffffffffffffffffffffffffffffffff1673ffffffffffffffffffffffffffffffffffffffff16815260200190815260200160002060006101000a81548160ff0219169083151502179055508173ffffffffffffffffffffffffffffffffffffffff168373ffffffffffffffffffffffffffffffffffffffff167f17307eab39ab6107e8899845ad3d59bd9653f200f220920489ca2b5937696c31836040516117399190611df7565b60405180910390a3505050565b611751848484611354565b61175d8484848461197f565b61179c576040517f08c379a000000000000000000000000000000000000000000000000000000000815260040161179390612d4a565b60405180910390fd5b50505050565b606060405180602001604052806000815250905090565b60606000821415611801576040518060400160405280600181526020017f30000000000000000000000000000000000000000000000000000000000000008152509050611915565b600082905060005b6000821461183357808061181c90612d6a565b915050600a8261182c9190612de2565b9150611809565b60008167ffffffffffffffff81111561184f5761184e612200565b5b6040519080825280601f01601f1916602001820160405280156118815781602001600182028036833780820191505090505b5090505b6000851461190e5760018261189a919061290b565b9150600a856118a99190612e13565b60306118b5919061296e565b60f81b8183815181106118cb576118ca61293f565b5b60200101907effffffffffffffffffffffffffffffffffffffffffffffffffffffffffffff1916908160001a905350600a856119079190612de2565b9450611885565b8093505050505b919050565b505050565b505050565b61192e8383611b16565b61193b600084848461197f565b61197a576040517f08c379a000000000000000000000000000000000000000000000000000000000815260040161197190612d4a565b60405180910390fd5b505050565b60006119a08473ffffffffffffffffffffffffffffffffffffffff16611cf0565b15611b09578373ffffffffffffffffffffffffffffffffffffffff1663150b7a026119c96111b5565b8786866040518563ffffffff1660e01b81526004016119eb9493929190612e99565b602060405180830381600087803b158015611a0557600080fd5b505af1925050508015611a3657506040513d601f19601f82011682018060405250810190611a339190612efa565b60015b611ab9573d8060008114611a66576040519150601f19603f3d011682016040523d82523d6000602084013e611a6b565b606091505b50600081511415611ab1576040517f08c379a0000000000000000000000000000000000000000000000000000000008152600401611aa890612d4a565b60405180910390fd5b805181602001fd5b63150b7a0260e01b7bffffffffffffffffffffffffffffffffffffffffffffffffffffffff1916817bffffffffffffffffffffffffffffffffffffffffffffffffffffffff191614915050611b0e565b600190505b949350505050565b600073ffffffffffffffffffffffffffffffffffffffff168273ffffffffffffffffffffffffffffffffffffffff161415611b86576040517f08c379a0000000000000000000000000000000000000000000000000000000008152600401611b7d90612f73565b60405180910390fd5b611b8f81611149565b15611bcf576040517f08c379a0000000000000000000000000000000000000000000000000000000008152600401611bc690612fdf565b60405180910390fd5b611bdb6000838361191a565b6001600360008473ffffffffffffffffffffffffffffffffffffffff1673ffffffffffffffffffffffffffffffffffffffff1681526020019081526020016000206000828254611c2b919061296e565b92505081905550816002600083815260200190815260200160002060006101000a81548173ffffffffffffffffffffffffffffffffffffffff021916908373ffffffffffffffffffffffffffffffffffffffff160217905550808273ffffffffffffffffffffffffffffffffffffffff16600073ffffffffffffffffffffffffffffffffffffffff167fddf252ad1be2c89b69c2b068fc378daa952ba7f163c4a11628f55a4df523b3ef60405160405180910390a4611cec6000838361191f565b5050565b6000808273ffffffffffffffffffffffffffffffffffffffff163b119050919050565b604051806040016040528060608152602001600073ffffffffffffffffffffffffffffffffffffffff1681525090565b6000604051905090565b600080fd5b600080fd5b60007fffffffff0000000000000000000000000000000000000000000000000000000082169050919050565b611d8c81611d57565b8114611d9757600080fd5b50565b600081359050611da981611d83565b92915050565b600060208284031215611dc557611dc4611d4d565b5b6000611dd384828501611d9a565b91505092915050565b60008115159050919050565b611df181611ddc565b82525050565b6000602082019050611e0c6000830184611de8565b92915050565b600081519050919050565b600082825260208201905092915050565b60005b83811015611e4c578082015181840152602081019050611e31565b83811115611e5b576000848401525b50505050565b6000601f19601f8301169050919050565b6000611e7d82611e12565b611e878185611e1d565b9350611e97818560208601611e2e565b611ea081611e61565b840191505092915050565b60006020820190508181036000830152611ec58184611e72565b905092915050565b6000819050919050565b611ee081611ecd565b8114611eeb57600080fd5b50565b600081359050611efd81611ed7565b92915050565b600060208284031215611f1957611f18611d4d565b5b6000611f2784828501611eee565b91505092915050565b600073ffffffffffffffffffffffffffffffffffffffff82169050919050565b6000611f5b82611f30565b9050919050565b611f6b81611f50565b82525050565b6000602082019050611f866000830184611f62565b92915050565b611f9581611f50565b8114611fa057600080fd5b50565b600081359050611fb281611f8c565b92915050565b60008060408385031215611fcf57611fce611d4d565b5b6000611fdd85828601611fa3565b9250506020611fee85828601611eee565b9150509250929050565b61200181611ecd565b82525050565b600060208201905061201c6000830184611ff8565b92915050565b60008060006060848603121561203b5761203a611d4d565b5b600061204986828701611fa3565b935050602061205a86828701611fa3565b925050604061206b86828701611eee565b9150509250925092565b6000604082019050818103600083015261208f8185611e72565b905061209e6020830184611f62565b9392505050565b6000602082840312156120bb576120ba611d4d565b5b60006120c984828501611fa3565b91505092915050565b600082825260208201905092915050565b60006120ee82611e12565b6120f881856120d2565b9350612108818560208601611e2e565b61211181611e61565b840191505092915050565b61212581611f50565b82525050565b6000604083016000830151848203600086015261214882826120e3565b915050602083015161215d602086018261211c565b508091505092915050565b60006020820190508181036000830152612182818461212b565b905092915050565b61219381611ddc565b811461219e57600080fd5b50565b6000813590506121b08161218a565b92915050565b600080604083850312156121cd576121cc611d4d565b5b60006121db85828601611fa3565b92505060206121ec858286016121a1565b9150509250929050565b600080fd5b600080fd5b7f4e487b7100000000000000000000000000000000000000000000000000000000600052604160045260246000fd5b61223882611e61565b810181811067ffffffffffffffff8211171561225757612256612200565b5b80604052505050565b600061226a611d43565b9050612276828261222f565b919050565b600067ffffffffffffffff82111561229657612295612200565b5b61229f82611e61565b9050602081019050919050565b82818337600083830152505050565b60006122ce6122c98461227b565b612260565b9050828152602081018484840111156122ea576122e96121fb565b5b6122f58482856122ac565b509392505050565b600082601f830112612312576123116121f6565b5b81356123228482602086016122bb565b91505092915050565b6000806000806080858703121561234557612344611d4d565b5b600061235387828801611fa3565b945050602061236487828801611fa3565b935050604061237587828801611eee565b925050606085013567ffffffffffffffff81111561239657612395611d52565b5b6123a2878288016122fd565b91505092959194509250565b600081519050919050565b600082825260208201905092915050565b6000819050602082019050919050565b600060408301600083015184820360008601526123f782826120e3565b915050602083015161240c602086018261211c565b508091505092915050565b600061242383836123da565b905092915050565b6000602082019050919050565b6000612443826123ae565b61244d81856123b9565b93508360208202850161245f856123ca565b8060005b8581101561249b578484038952815161247c8582612417565b94506124878361242b565b925060208a01995050600181019050612463565b50829750879550505050505092915050565b600060208201905081810360008301526124c78184612438565b905092915050565b600080604083850312156124e6576124e5611d4d565b5b60006124f485828601611fa3565b925050602061250585828601611fa3565b9150509250929050565b7f4e487b7100000000000000000000000000000000000000000000000000000000600052602260045260246000fd5b6000600282049050600182168061255657607f821691505b6020821081141561256a5761256961250f565b5b50919050565b7f4552433732313a20617070726f76656420717565727920666f72206e6f6e657860008201527f697374656e7420746f6b656e0000000000000000000000000000000000000000602082015250565b60006125cc602c83611e1d565b91506125d782612570565b604082019050919050565b600060208201905081810360008301526125fb816125bf565b9050919050565b7f4552433732313a20617070726f76616c20746f2063757272656e74206f776e6560008201527f7200000000000000000000000000000000000000000000000000000000000000602082015250565b600061265e602183611e1d565b915061266982612602565b604082019050919050565b6000602082019050818103600083015261268d81612651565b9050919050565b7f4552433732313a20617070726f76652063616c6c6572206973206e6f74206f7760008201527f6e6572206e6f7220617070726f76656420666f7220616c6c0000000000000000602082015250565b60006126f0603883611e1d565b91506126fb82612694565b604082019050919050565b6000602082019050818103600083015261271f816126e3565b9050919050565b7f4552433732313a207472616e736665722063616c6c6572206973206e6f74206f60008201527f776e6572206e6f7220617070726f766564000000000000000000000000000000602082015250565b6000612782603183611e1d565b915061278d82612726565b604082019050919050565b600060208201905081810360008301526127b181612775565b9050919050565b7f4552433732313a206f776e657220717565727920666f72206e6f6e657869737460008201527f656e7420746f6b656e0000000000000000000000000000000000000000000000602082015250565b6000612814602983611e1d565b915061281f826127b8565b604082019050919050565b6000602082019050818103600083015261284381612807565b9050919050565b7f4552433732313a2062616c616e636520717565727920666f7220746865207a6560008201527f726f206164647265737300000000000000000000000000000000000000000000602082015250565b60006128a6602a83611e1d565b91506128b18261284a565b604082019050919050565b600060208201905081810360008301526128d581612899565b9050919050565b7f4e487b7100000000000000000000000000000000000000000000000000000000600052601160045260246000fd5b600061291682611ecd565b915061292183611ecd565b925082821015612934576129336128dc565b5b828203905092915050565b7f4e487b7100000000000000000000000000000000000000000000000000000000600052603260045260246000fd5b600061297982611ecd565b915061298483611ecd565b9250827fffffffffffffffffffffffffffffffffffffffffffffffffffffffffffffffff038211156129b9576129b86128dc565b5b828201905092915050565b7f4552433732314d657461646174613a2055524920717565727920666f72206e6f60008201527f6e6578697374656e7420746f6b656e0000000000000000000000000000000000602082015250565b6000612a20602f83611e1d565b9150612a2b826129c4565b604082019050919050565b60006020820190508181036000830152612a4f81612a13565b9050919050565b600081905092915050565b6000612a6c82611e12565b612a768185612a56565b9350612a86818560208601611e2e565b80840191505092915050565b6000612a9e8285612a61565b9150612aaa8284612a61565b91508190509392505050565b7f4552433732313a206f70657261746f7220717565727920666f72206e6f6e657860008201527f697374656e7420746f6b656e0000000000000000000000000000000000000000602082015250565b6000612b12602c83611e1d565b9150612b1d82612ab6565b604082019050919050565b60006020820190508181036000830152612b4181612b05565b9050919050565b7f4552433732313a207472616e736665722066726f6d20696e636f72726563742060008201527f6f776e6572000000000000000000000000000000000000000000000000000000602082015250565b6000612ba4602583611e1d565b9150612baf82612b48565b604082019050919050565b60006020820190508181036000830152612bd381612b97565b9050919050565b7f4552433732313a207472616e7366657220746f20746865207a65726f2061646460008201527f7265737300000000000000000000000000000000000000000000000000000000602082015250565b6000612c36602483611e1d565b9150612c4182612bda565b604082019050919050565b60006020820190508181036000830152612c6581612c29565b9050919050565b7f4552433732313a20617070726f766520746f2063616c6c657200000000000000600082015250565b6000612ca2601983611e1d565b9150612cad82612c6c565b602082019050919050565b60006020820190508181036000830152612cd181612c95565b9050919050565b7f4552433732313a207472616e7366657220746f206e6f6e20455243373231526560008201527f63656976657220696d706c656d656e7465720000000000000000000000000000602082015250565b6000612d34603283611e1d565b9150612d3f82612cd8565b604082019050919050565b60006020820190508181036000830152612d6381612d27565b9050919050565b6000612d7582611ecd565b91507fffffffffffffffffffffffffffffffffffffffffffffffffffffffffffffffff821415612da857612da76128dc565b5b600182019050919050565b7f4e487b7100000000000000000000000000000000000000000000000000000000600052601260045260246000fd5b6000612ded82611ecd565b9150612df883611ecd565b925082612e0857612e07612db3565b5b828204905092915050565b6000612e1e82611ecd565b9150612e2983611ecd565b925082612e3957612e38612db3565b5b828206905092915050565b600081519050919050565b600082825260208201905092915050565b6000612e6b82612e44565b612e758185612e4f565b9350612e85818560208601611e2e565b612e8e81611e61565b840191505092915050565b6000608082019050612eae6000830187611f62565b612ebb6020830186611f62565b612ec86040830185611ff8565b8181036060830152612eda8184612e60565b905095945050505050565b600081519050612ef481611d83565b92915050565b600060208284031215612f1057612f0f611d4d565b5b6000612f1e84828501612ee5565b91505092915050565b7f4552433732313a206d696e7420746f20746865207a65726f2061646472657373600082015250565b6000612f5d602083611e1d565b9150612f6882612f27565b602082019050919050565b60006020820190508181036000830152612f8c81612f50565b9050919050565b7f4552433732313a20746f6b656e20616c7265616479206d696e74656400000000600082015250565b6000612fc9601c83611e1d565b9150612fd482612f93565b602082019050919050565b60006020820190508181036000830152612ff881612fbc565b905091905056fea2646970667358221220939c50113ace9ccd1f35dbfecf25ac17266dfbeb2fc97b0636f8d45d9e007d9b64736f6c63430008090033",
  "immutableReferences": {},
  "source": "// SPDX-License-Identifier: MIT\npragma solidity ^0.8.0;\n\nimport \"@openzeppelin/contracts/token/ERC721/ERC721.sol\";\n\ncontract Property is ERC721 {\n    uint256 public cost = 5 ether;\n    uint256 public maxSupply = 3;\n    uint256 public totalSupply = 0;\n\n    struct Building {\n        string name;\n        address owner;\n    }\n\n    Building[] public buildings;\n\n    constructor(\n        string memory _name,\n        string memory _symbol,\n        uint256 _cost\n    ) ERC721(_name, _symbol) {\n        cost = _cost;\n\n\n        buildings.push(Building('Rosedale House', address(0x0)));\n        buildings.push(Building('Oakview', address(0x0)));\n        buildings.push(Building('Coxes Meadow', address(0x0)));\n    }\n\n    function mint(uint256 _id) public payable {\n        uint256 supply = totalSupply;\n        require(supply <= maxSupply);\n        require(buildings[_id - 1].owner == address(0x0));\n        require(msg.value >= cost);\n\n        buildings[_id - 1].owner = msg.sender;\n        totalSupply = totalSupply + 1;\n\n        _safeMint(msg.sender, _id);\n    }\n\n    function getBuildings() public view returns (Building[] memory) {\n        return buildings;\n    }\n\n    function getBuilding(uint256 _id) public view returns (Building memory) {\n        return buildings[_id - 1];\n    }\n}",
  "sourcePath": "/home/rahni/metaverse1/src/contracts/Property.sol",
  "compiler": {
    "name": "solc",
    "version": "0.8.9+commit.e5eed63a.Emscripten.clang"
  },
  "schemaVersion": "3.4.7",
  "updatedAt": "2022-05-15T10:40:41.847Z",
  "networkType": "ethereum",
  "devdoc": {
    "kind": "dev",
    "methods": {
      "approve(address,uint256)": {
        "details": "See {IERC721-approve}."
      },
      "balanceOf(address)": {
        "details": "See {IERC721-balanceOf}."
      },
      "getApproved(uint256)": {
        "details": "See {IERC721-getApproved}."
      },
      "isApprovedForAll(address,address)": {
        "details": "See {IERC721-isApprovedForAll}."
      },
      "name()": {
        "details": "See {IERC721Metadata-name}."
      },
      "ownerOf(uint256)": {
        "details": "See {IERC721-ownerOf}."
      },
      "safeTransferFrom(address,address,uint256)": {
        "details": "See {IERC721-safeTransferFrom}."
      },
      "safeTransferFrom(address,address,uint256,bytes)": {
        "details": "See {IERC721-safeTransferFrom}."
      },
      "setApprovalForAll(address,bool)": {
        "details": "See {IERC721-setApprovalForAll}."
      },
      "supportsInterface(bytes4)": {
        "details": "See {IERC165-supportsInterface}."
      },
      "symbol()": {
        "details": "See {IERC721Metadata-symbol}."
      },
      "tokenURI(uint256)": {
        "details": "See {IERC721Metadata-tokenURI}."
      },
      "transferFrom(address,address,uint256)": {
        "details": "See {IERC721-transferFrom}."
      }
    },
    "version": 1
  },
  "userdoc": {
    "kind": "user",
    "methods": {},
    "version": 1
  }
}